:100000000C948D010C94D4010C94D4010C94D40163
:100010000C94D4010C94D4010C94D4010C94D4010C
:100020000C94D4010C94D4010C94611B0C94351CD9
:100030000C94D3130C94D4010C94D4010C94D401DB
:100040000C94D4010C94D4010C94D4010C94D401DC
:100050000C94D4010C941E140C94D4010C94D4016F
:100060000C94D4010C94D4010C94D4010C94D401BC
:100070000C94D4010C94D4010C94D4010C94D401AC
:100080000C94D4010C94D4010C94D4010C94D4019C
:100090000C94D4010C94D4010C94D4010C94D4018C
:1000A0000C94D4010C94D4010C94D40129001E00AA
:1000B0001F0020002100220023002400250026002C
:1000C00027002D002E002A00A8002B0014001A0083
:1000D0000800150017001C0018000C001200130087
:1000E0002F003000310046003900040016000700E0
:1000F00009000A000B000D000E000F003300340051
:10010000280000004C00E10000001D001B0006005C
:100110001900050011001000360037003800E50016
:1001200052003500E000E300E200000000000000A3
:100130002C0000000000E6000151E40050005100D6
:100140004F0001003A003B003C003D003E003F00F4
:10015000400041004200430044004500010001000E
:100160000100010001000100010001000100010087
:100170000100010001000100010001004B0001002D
:100180000100010001000100010001000100010067
:10019000010001000100010000004E00010000000C
:1001A0000100010001000100010001000100010047
:1001B00001000100010001004900010001000100EF
:1001C000000000000000010000000000010001002C
:1001D00001000100010001001A036D0069006E00BA
:1001E00069005F0065004C00690058006900560016
:1001F0007900000012036D0069006E006900620062
:100200006F006900730000000403090409023B0049
:10021000020100A0FA090400000103010100092104
:10022000110100012240000705810308000A0904AA
:1002300001000103000000092111010001228100D9
:100240000705820320000A1201100100000008EDDA
:10025000FE000001000102000105010902A1018563
:10026000020901A1000509190129051500250195BB
:1002700005750181029501750381010501093009A8
:10028000311581257F95027508810609381581256C
:100290007F950175088106050C0A38021581257FB6
:1002A000950175088106C0C005010980A10185037B
:1002B00019012AB700150126B700950175108100B4
:1002C000C0050C0901A101850419012AA00215012C
:1002D00026A002950175108100C005010906A10143
:1002E000050719E029E71500250195087501810228
:1002F0009501750881010507190029FF150026FFE2
:1003000000950675088100050819012905950575F0
:10031000019102950175039101C011241FBECFEF19
:10032000DAE0DEBFCDBF04B603FE27C080917702BE
:1003300090917802A0917902B0917A028730904B27
:10034000A740B04BD1F4109277021092780210922D
:10035000790210927A0214BE84B7877F84BF0FB6E9
:10036000F894A89580916000886180936000109255
:1003700060000FBEE0E0F8E3099511E0A0E0B1E015
:10038000EAEFFCE302C005900D92AC39B107D9F752
:1003900022E0ACE9B1E001C01D92A737B207E1F756
:1003A0000E94A3180C94571E0C94000089EA611156
:1003B00001C08AEA0C944F0A81E0089581E0089513
:1003C0000C94DE0108950C94E2011F93CF93DF9308
:1003D00000D000D00F92CDB7DEB749835A836B832C
:1003E0003091B70189819A8131111DC06623B9F01E
:1003F0002223A9F00E944311182F682F89819A8126
:100400000E94EF1069817A81812F0F900F900F90D9
:100410000F900F90DF91CF911F910C9493020E9447
:100420001B11182FEFCF0E94431169817A81EDCF04
:10043000FC01262F408151816281738184810C945B
:10044000E501CF93DF93EC0160E00E941802BE014A
:10045000DF91CF910C94E3010E9468140E948012F6
:10046000811102C00E9424130C947C040C947F041C
:1004700008950E94D10C0E9438022FEF84E39CE083
:10048000215080409040E1F700C000000C944214DD
:100490000F931F93CF93DF93EC0161E00E9418024A
:1004A0008C01BE010E94E001882329F1BE01C80130
:1004B0000E946C068823F9F0BE01C8010E94BE06A6
:1004C0008823C9F0BE01C8010E94E107882399F082
:1004D0008A81882339F001158CE5180751F00F3D0A
:1004E0001C4579F0CE01DF91CF911F910F910C94B3
:1004F000DC010E94390280E0DF91CF911F910F91C2
:1005000008950E942413F7CF08950C94840281E08B
:1005100008950C948702CF93C82F0E9485028C2FD8
:10052000CF910C948902972F70E02FE0929F600D7D
:10053000711D1124FB019BE4899FE00DF11D112425
:10054000EE0FFF1FE455FF4F859194910895CF93CF
:10055000DF930E9493020E94A103EC01811521E523
:10056000920708F042C0811530E5930708F09DC05E
:10057000883E910530F5803E910508F092C0883A9A
:10058000910588F4853A910508F084C08130910581
:1005900009F487C0009709F484C0049708F081C06B
:1005A000D0E0C0E07EC08F3B9105D0F7C85AD0E0C4
:1005B000CC0FDD1FCB5EDE4F0990D881C02DD464F7
:1005C00070C08115904250F4C11581E0D80708F041
:1005D00068C0C03FD10520F3D06563C0C11590E469
:1005E000D907F0F2DF70D06A5CC0811525E592076B
:1005F00000F5811534E5930708F08BC0811543E5BC
:10060000940708F073C0C11582E5D80708F469C0E3
:10061000CE018370992721E030E002C0220F331F02
:100620008A95E2F7C695C69580E2C89FE00111243D
:1006300054C0C11599E5D907A8F4C11528E5D2071A
:1006400008F06CC0C11536E5D30708F0A9CF8C2F90
:100650000E943804C82FD0E0DC2FCC27CC27DF71D4
:10066000D0621FC0C1154AE5D40708F45CC0CE01B2
:1006700090568115904208F093CF8D2F8F710E9474
:10068000380490E0982F882788279F719C012C2B95
:10069000E901E6CFC55AD0E0CD5BDE4FC881D0E09E
:1006A000D064CE01DF91CF910895E4E096958795CF
:1006B000EA95E1F783702C2F26952695237040E26A
:1006C000249F90011124382B8C2F8370C1E0D0E03F
:1006D00002C0CC0FDD1F8A95E2F7C22BD32BDC685A
:1006E000E0CFDC2FCC27C16FD06ADBCF8370992796
:1006F00021E030E002C0220F331F8A95E2F7C69551
:10070000C69590E2C99FE0011124C22BD32BDA6871
:10071000C8CFD82FCC27C46FD06AC3CFDC2FCC274B
:10072000C06FD06ABECF8C2F8F700E94380434E027
:10073000D695C7953A95E1F7CF709C2FEC01D0691B
:10074000B0CF82389105B1F1B0F48133910509F44D
:1007500075C048F48932910509F469C08A3291055F
:1007600009F473C008958533910509F459C089339C
:10077000910501F10895833E9105A9F138F4803E79
:100780009105F9F0823E910549F10895863E910563
:10079000A9F1873E9105C9F1843E910519F5209193
:1007A000690221FF1FC08091680284FD14C087EE9A
:1007B00090E00895209168022370A1F080EE90E00F
:1007C00008952091680220FD47C03091690230FFF2
:1007D00009C024FF44C090E080E004C0209168027A
:1007E00022FDF7CF08952091680222FD3BC0309191
:1007F000690230FDE3CF24FFF5CFEDCF20916802F1
:1008000023FFF0CF24FDE7CFD2CF2091680223FD54
:100810002CC03091690231FFEECF84EE90E0089554
:100820002091680225FFDECF89E290E008952091B3
:10083000680225FFD7CF85E390E0089520916802F4
:1008400026FFD0CF8AE290E008952091680226FF2B
:10085000C9CF81E390E0089589E390E0089583EEA5
:1008600090E0089582EE90E0089586EE90E008957D
:100870009091680292FF06C0282F28712830F9F461
:10088000877F846093FF06C0282F28712831F1F4F8
:10089000877E84612091690220FF06C0382F38715D
:1008A0003830D9F4877F816021FF06C0282F287156
:1008B0002831D1F4877E816194FD877E0895282FA9
:1008C00024712430F9F68B7F8860DCCF282F2471C7
:1008D000243101F78B7E8861DDCF382F31713130C3
:1008E00019F78E7F8860E0CF282F2171213121F701
:1008F0008E7E8861E1CF08950C947B0408950C945A
:100900007E04E82FF0E0EE0FFF1FE65AFD4F8081D6
:1009100091810895089580EA8A95F1F70895F894F1
:10092000E82FE295EF70F0E031A1282F2F7081E0E1
:1009300090E001C0880F2A95EAF7982F90959323AD
:1009400091A392A1892B82A3789408950F931F936A
:10095000CF93DF9385E30E948F0486E30E948F0488
:1009600086EC0E948F0486EF0E948F0487E60E9427
:100970008F04C6E4D1E005E511E089910E948F045F
:100980000C171D07D1F710925102109250021092CD
:100990005B0210925A02109253021092520210926D
:1009A0005D0210925C021092550210925402109255
:1009B0005F0210925E02109257021092560210923D
:1009C0006102109260021092590210925802109225
:1009D00063021092620285E00E947205DF91CF915E
:1009E0001F910F910C942C02AF92BF92DF92EF9265
:1009F000FF920F931F93CF93DF93C5E5D1E000E5FE
:100A000012E0D12CEE24E394F12C8991F894E82F94
:100A1000E295EF70F0E021A18F70A70102C0440FB2
:100A2000551F8A95E2F7CA01922F982B91A392A1A4
:100A30008095892382A378940E948B04E6E4F1E0F8
:100A400030E020E0B12CA12C4191A42FA295AF70F1
:100A5000B0E090968C9190E04F7002C0959587958C
:100A60004A95E2F780FD39C0C701022E02C0880F07
:100A7000991F0A94E2F7A82AB92A2F5F3F4F2F3017
:100A8000310511F7FE01319780810E948F04F80132
:100A900080819181A816B90619F1B182A08281E006
:100AA000D82A0E5F1F4FF1E0CA35DF0709F0ADCF3E
:100AB0002D2D45E06AE572E080E592E00E94730525
:100AC0000E9436028D2DDF91CF911F910F91FF90E3
:100AD000EF90DF90BF90AF90089590E080E0CBCF93
:100AE00080E0DECF0895FF920F931F93CF93DF93A3
:100AF000F82E092F162FD72FC42F222349F081E07B
:100B000080939E010E94031490939D0180939C0109
:100B100080919E018823A1F080919C0190919D017C
:100B20000E940F14069760F0EF2DF02FA12FBD2F1C
:100B300090E080E0D0E08C179D0744F010929E0179
:100B4000DF91CF911F910F91FF90089521913191E5
:100B50002D933D930196EFCF0C94D6012098289ABF
:100B600055985D9A83B181704D9905C090E0892BAD
:100B70008093A101089592E0FACFE091A101EE0FD8
:100B8000EE0FE093A10143B1842F817049B145FB81
:100B9000222720F945FF02C022E030E0822BE82B1B
:100BA000E093A101EF70F0E0E65AFE4F8081909152
:100BB000A001890F8093A00184304CF080919F01A7
:100BC0008F5F80939F0160E080E00E94AC05809180
:100BD000A0018D3F4CF480919F01815080939F0133
:100BE00061E080E00E94AC058091A001082E000C1D
:100BF000990B64E070E00E94E71D8093A0010895C6
:100C00000F931F93CF93DF93C42FD22FFC018281C8
:100C10008823C9F04093A4010E9403149093A30178
:100C20008093A20180E28C0F883008F050C0C7701A
:100C300081E001C0880FCA95EAF7DF91CF911F913B
:100C40000F910C94620A1091A401141335C0809185
:100C5000A2019091A3010E940F14883C910560F5B8
:100C6000C0E2CD0F1D17B9F080E2810F883040F44B
:100C7000177081E001C0880F1A95EAF70E94690A8F
:100C8000C83048F481E09D2F977001C0880F9A9575
:100C9000EAF70E94620A802F0E944F0AC830B8F417
:100CA000D77081E001C0880FDA95EAF7DF91CF9124
:100CB0001F910F910C94690A80E28C0F883038F4F0
:100CC000C77081E001C0880FCA95EAF7EFCFDF91C6
:100CD000CF911F910F9108950F939C01CB01243F59
:100CE0004CE5340759F1A8F4293DFCE53F0701F133
:100CF0002A3D4CE53407D1F1283D3C4591F406E20C
:100D000021EE41EE68ED7CE50E94000680E00F9147
:100D10000895263FFCE53F07E9F0B0F0273F3C454A
:100D2000F9F0FC018281882339F11092A401EFCF00
:100D300007E225EE45EE69ED7CE5E6CF06E221EE21
:100D400040EE64EF7CE5E0CF07E225EE44EE65EF90
:100D50007CE5DACF06E221EE42EE66EF7CE5D4CF09
:100D600007E225EE46EE67EF7CE5CECF08E221E014
:100D700045EE6AED7CE5C8CF81E0C9CFCF93DF9324
:100D8000EC01FB018281882309F419C1C230FCE522
:100D9000DF07C0F1C6319CE5D90730F09E012B5F1B
:100DA0003C452930310570F50E94931290936902F9
:100DB00080936802C031ECE5DE0709F4CFC008F08B
:100DC0005BC0C8308CE5D80709F4B6C088F5C430DC
:100DD000ECE5DE0709F4A8C0C0F4C2308CE5D80702
:100DE00009F49CC0809168028260C330DC4509F43C
:100DF00098C080916802909169020E94A1120E949D
:100E0000D10C80E0DF91CF910895809168028061DC
:100E1000C630ECE5DE0709F484C080916802886082
:100E2000C730DC4508F47DC080916802806279C0DB
:100E3000CC308CE5D80709F489C070F48091680241
:100E40008C60CA30ECE5DE0709F46BC008F478C0AA
:100E5000809168028E7F65C0CE308CE5D80709F49A
:100E600079C0809168028B7FCF30DC4508F459C08F
:100E7000809168028F7E55C0CC3FECE5DE0709F417
:100E800057C030F5C3318CE5D80709F46FC078F44A
:100E9000C131ECE5DE0709F465C0C231DC4509F07B
:100EA000A8CF0E94D10C809168028F773AC0C531DB
:100EB0008CE5D80709F462C008F476C08091690215
:100EC0008160CB3FDC4509F094CF8093690291CFDC
:100ED000C115FDE5DF0709F44DC088F48091690272
:100EE0008D7FCE3F9CE5D90781F3809169028E7F8B
:100EF000CF3FDC4550F3809169028360E6CFC2307A
:100F0000FDE5DF0709F459C008F444C080E0C330B0
:100F1000DD4509F06ECF0E9426136BCF80916802E9
:100F200081608093680265CF809168028460F9CF08
:100F3000809169028260C9CF809168028064F1CF9C
:100F40000E94D10C809168028068EBCF809168028A
:100F50008D7FE7CF80916802877FE3CF8091680221
:100F60008F7DDFCF809168028F7BDBCF809168021D
:100F7000837FD7CF809169028C7FA7CF8091680251
:100F800082FB992790F921E0922790FB82F990FB50
:100F900083F9C7CF80916902982F909591708E7FC9
:100FA000892B90FB81F991CF0E94D10C909168021E
:100FB000892F97FB87F98058B4CF81E0ACCF81E0CF
:100FC00021CFCF93DF93EB0186319C4511F50E9431
:100FD000D8119A81992399F08A7A91E009F490E0E6
:100FE0009093A501811109C089E20E94B3110E946A
:100FF000171280E0DF91CF91089585E3F6CF8091BD
:10100000A501811104C089E20E94BA11F0CF85E3E5
:10101000FBCF81E0EFCF9093AB018093AA010895BD
:10102000E091AA01F091AB01309721F00190F0819D
:10103000E02D099480E00895E091AA01F091AB01C0
:10104000309721F00280F381E02D09940895E0911A
:10105000AA01F091AB01309739F022E0DC012C932A
:101060000480F581E02D099408952091A801309124
:10107000A9012817390771F09093A9018093A8015D
:10108000E091AA01F091AB01309721F00680F78141
:10109000E02D099408952091A6013091A701281709
:1010A000390771F09093A7018093A601E091AA01FE
:1010B000F091AB01309721F00084F185E02D099487
:1010C000089585B7806885BF85B7806885BF089516
:1010D000089508950C94680808950C946C080E9473
:1010E00061080E9469080C946A0881E008950C94D4
:1010F0007508089508950E94FA130E94A6040E949C
:101100007C140E94AE050C946D089F92AF92BF9222
:10111000CF92DF92EF92FF920F931F93CF93DF93C3
:10112000CDB7DEB72A970FB6F894DEBF0FBECDBF9E
:101130000E9479080E947A080E94F4040E947708AD
:10114000882309F472C05DEAA52E51E0B52E10E0A7
:1011500000E0902E802F0E9481046C01F501E19047
:10116000F1905F01E816F90609F459C08091370241
:1011700081FD0E948A0497012C253D2580E0EE2404
:10118000E394F12CA9014E215F21452B09F441C0C4
:101190008E839F82CE20DF2081E0CD2809F480E07D
:1011A00088870E9403148160782F9A8789874E81EF
:1011B0005F8168858A850E943809000F111FF80138
:1011C000E355FE4F80819181E826F926F182E08285
:1011D0000E94BD050E9427160E9410089091AC0144
:1011E0008917A1F10E9410088093AC012A960FB6CE
:1011F000F894DEBF0FBECDBFDF91CF911F910F914D
:10120000FF90EF90DF90CF90BF90AF909F900C94A5
:101210008B028F5FEE0CFF1C8F3009F0B3CF0F5F96
:101220001F4F0530110509F094CF8FEF89838A8312
:101230001B820E9403148160782F9D838C834981D7
:101240005A816B818D810E943809C2CF2A960FB6D0
:10125000F894DEBF0FBECDBFDF91CF911F910F91EC
:10126000FF90EF90DF90CF90BF90AF909F90089548
:10127000CF93DF93CDB7DEB72B970FB6F894DEBFD1
:101280000FBECDBF4F83588769877A878B871E82B1
:101290001D8285E0FE013796DE01119601900D92C8
:1012A0008A95E1F749815A816B817C818D819E818C
:1012B0002B960FB6F894DEBF0FBECDBFDF91CF9156
:1012C0000C94470FFC01808191810C948511CF9380
:1012D000C82F882309F48BC08238C1F40E941008FB
:1012E00081FD85C089E30E94B3110E9417122FEF80
:1012F00081EE94E0215080409040E1F700C0000072
:1013000089E30E94BA11CF910C9417128338A1F48B
:101310000E94100880FD6BC083E50E94B3110E94FB
:1013200017122FEF81EE94E0215080409040E1F7BA
:1013300000C0000083E5E5CF8438A1F40E941008C6
:1013400082FD55C087E40E94B3110E9417122FEF4F
:1013500081EE94E0215080409040E1F700C0000011
:1013600087E4CFCF8CEF8C0F813A90F46C2F809173
:101370000001909101010E943D13882329F08C2FD8
:101380000E94BA110E9417128C2F0E94B311BBCF7A
:1013900080E28C0F883048F4C77081E001C0880F6C
:1013A000CA95EAF70E94DB11AECFEBE5EC0FE33014
:1013B00040F4F0E0E856FE4F808190E0CF910C942D
:1013C0003508E8E5EC0FE73150F4F0E0EE0FFF1FD1
:1013D000E659FE4F80819181CF910C944B08C03F1C
:1013E00030F08C2F0E942115CF910C940C16CF91C8
:1013F0000895882309F452C0823871F40E941008BD
:1014000081FF4CC089E30E94B3110E94171289E347
:101410000E94BA110C941712833859F40E941008D4
:1014200080FF3CC083E50E94B3110E94171283E540
:10143000EFCF843859F40E94100882FF2FC087E450
:101440000E94B3110E94171287E4E2CF9CEF980F1D
:10145000913AF0F290E2980F983050F4877091E052
:1014600001C0990F8A95EAF7892F0E94E111D2CF26
:101470009BE5980F933020F490E080E00C943508C1
:1014800098E5980F973120F490E080E00C944B0899
:10149000803F20F00E9489150C940C160895CF937C
:1014A000C82F0E946709C93349F42FEF87EE93E0F4
:1014B000215080409040E1F700C000008C2FCF9178
:1014C0000C94F909882321F00E94DB110C94171267
:1014D0000895882321F00E94E1110C9417120895B9
:1014E000BF92CF92DF92EF92FF920F931F93CF9311
:1014F000DF936C01D62FC72FFC01058102950F7079
:10150000128111110E94F8110E94D111E82E882336
:1015100091F01123E9F08C2F807F803421F080E25C
:101520008D0F8830A8F082E00E9462120E94D111D3
:1015300091E0E82EE926BC2EB2949FE0B922FBE0B0
:10154000FB15A8F1EB2DF0E0E75AF14E0C94FB1DD2
:10155000E12CF1CF0C2F0F70C07F11F00295007FAE
:101560001123A9F0002359F080E28D0F883010F08C
:10157000D11109C0802F0E94DB110E9417128D2FFC
:101580000E94670914C0802F0E94EB11F6CF8D2FA7
:101590000E94F909002359F080E28D0F883010F085
:1015A000D1112CC0802F0E94E1110E9417122B2D07
:1015B0002850330B2430310520F40E9410080E947B
:1015C0008B02EE2009F48EC10E94CD1180FD8AC1EC
:1015D000F60112820E94C7110E945310C6010E9498
:1015E000930C0E94C711DF91CF911F910F91FF9033
:1015F000EF90DF90CF90BF900C947410802F0E94DA
:10160000F111D3CF2C2F2F70F22EC07FC03219F0E2
:10161000F29480EFF822DD2369F0D13049F11123F3
:1016200091F1002351F1F601858180FFA8CF8F70E1
:10163000858323C0112381F0011106C00E94FE1191
:101640008F290E94620AB3CF0130C1F70E94FE11B8
:101650008F290E940412ABCF011106C00E940D1207
:101660008F2D0E94690AA3CF013009F4A0CFF6CFD5
:10167000112329F0063008F09ACF8F2DE2CF0530E4
:1016800008F095CFEDCF002359F3D93349F4FFEF9C
:1016900027EE33E0F15020403040E1F700C0000079
:1016A0008D2F0E94F90983CF8C2F869586958370A4
:1016B00069F0813009F07BCF8D2F9C2F9370111131
:1016C00002C090E080E00E944B0871CF8D2F9C2FCC
:1016D0009370111102C090E080E00E94350867CF3E
:1016E0008D2F112329F00E9421150E940C165FCF27
:1016F0000E948915FACF8C2F837009F041C0111117
:1017000056CF4D2F429546954770440F440F0D2FED
:101710000F7010E030E020E0042E04C0000F111F15
:10172000221F331F0A94D2F760E070E0CB01D4FF90
:101730000FC06FE070E080E090E004C0660F771F9C
:10174000881F991F4A95D2F760957095809590955E
:10175000C695C695C370602B712B822B932BC2301C
:1017600049F058F4C13019F00E94051020CF0E94B2
:10177000F30F1DCF0E9417101ACF0E94F10F17CF41
:101780008695112311F08C2F8170882309F40FCFD7
:101790004D2F429546954770440F440F0D2F0F7003
:1017A00010E030E020E0042E04C0000F111F221FC3
:1017B000331F0A94D2F760E070E0CB01D4FF0FC072
:1017C0006FE070E080E090E004C0660F771F881F34
:1017D000991F4A95D2F76095709580959095C6951A
:1017E000C695C370602B712B822B932BC23049F0AE
:1017F00058F4C13019F00E94CA10D9CE0E94B81016
:10180000D6CE0E94DC10D3CE0E942D10D0CECF7049
:10181000112329F08C2F0E9453108D2F12CF8D2F62
:101820000E94690A8C2F0E947410C1CED23F89F1A8
:1018300060F4D03FC9F0D13F29F1112309F442C02F
:1018400001119DCE8C2F8F7121C0D33F39F1D43F30
:10185000A1F7112369F1CF718C2F0E94531063E01F
:101860008C2F0E944D12A3CE112341F0053008F0B9
:101870009ECE8C2F8F710E94971099CE063008F063
:1018800096CEF7CF8C2F8F71112369F20E945310DF
:101890008ECE8C2F8F711123C9F3C5CF112329F060
:1018A0008C2F8F710E943E1082CE0E9439107FCE05
:1018B00081E00E946212023008F479CE82E00E9438
:1018C000621275CE002359F0D93309F0E9CE8FEFBB
:1018D00097EEE3E081509040E040E1F7DFCE8C2FBF
:1018E0008F71A1CFDF91CF911F910F91FF90EF905A
:1018F000DF90CF90BF9008950F931F93CF93DF9306
:10190000EC01688179818A810E948F118C010E948B
:10191000EE100E94F00FB801CE01DF91CF911F9120
:101920000F910C94700ACF93DF93EC018B819C8113
:10193000892B29F08881998189238F3F59F4DF9180
:10194000CF910895CE010E947C0CCE01DF91CF9102
:101950000C942102CE010E9448028111F3CF0E9413
:10196000D111882361F38A81882349F382E0DF91D2
:10197000CF910C9462120E94F8110E94FB110E94F8
:1019800017120E9433170E940C1690E080E00E940C
:10199000350890E080E00C944B080E94C1110C9433
:1019A000BB0C0E94E8110C94CD0CE92FE295EF706E
:1019B000E250EE3070F4F0E0EB59F14E0C94FB1D68
:1019C000803F19F020F4883E20F481E00895843FA0
:1019D000E1F380E00895883EC0F3813FD1F7F5CF71
:1019E00093FB882780F908950E9485110C94D50CEB
:1019F000CF93DF9300D000D00F92CDB7DEB70F901A
:101A00000F900F900F900F90DF91CF910895CF938B
:101A1000DF9300D000D000D0CDB7DEB726960FB64A
:101A2000F894DEBF0FBECDBFDF91CF9108951F9315
:101A3000CF93DF93C091B80116E08091B9018C1368
:101A400004C0DF91CF911F910895D0E01C9FF00159
:101A50001D9FF00D1124E654FE4F4081518162819B
:101A60007381848195810E94070D2196C770E5CF0F
:101A70004091EA015091EB016091EC017091ED0110
:101A80008091EE019091EF010C94070D1F93CF937D
:101A9000DF938091EF01807FA9F48091EC0188238E
:101AA00089F08091B801C091B9016091EA0170910B
:101AB000EB01A091ED01B091EE01D62FD72316E0F6
:101AC000C81304C0DF91CF911F91089590E0109743
:101AD00011F0DF3F19F401968770F2CF189F900143
:101AE000199F300D1124F901E654FE4F418147132F
:101AF000F2CF40814613EFCF42814111ECCF4381B9
:101B000054814A1B5B0B483C510528F78091EF013B
:101B10008F7080618093EF01F901E154FE4F808165
:101B20008F70806180838AEE91E00E94930CDF9138
:101B3000CF911F910C94170DAF92BF92CF92DF926D
:101B4000EF92FF920F931F93CF93DF93CDB7DEB742
:101B500061970FB6F894DEBF0FBECDBF8C0185E054
:101B6000F801DE011D9601900D928A95E1F7F801CA
:101B700040815181E2808AEEC82E81E0D82E6091AA
:101B8000ED017091EE016115710509F461C190914B
:101B9000EA012091EB01892F82238F3F09F458C17C
:101BA000A380B480F090EC01F501E61BF70BFF2059
:101BB00009F4FCC08091EF01382F307FE83CF1053B
:101BC00008F0B2C0311179C0FE2C251323C0941344
:101BD00021C0E1101FC08F7080618093EF010E94CF
:101BE000380DC6010E94930C8091EF01F8018583A6
:101BF0008F2D61960FB6F894DEBF0FBECDBFDF917B
:101C0000CF911F910F91FF90EF90DF90CF90BF90F9
:101C1000AF900895AB2829F0842F85238F3F09F0DA
:101C200033C180E0F82FF170DF2E80FF3CC080913F
:101C3000B8012091B90136E0821315C04D875E8747
:101C40008D859E850E948511292F22952F70223027
:101C5000F0F0243018F59F70F1F0F8019581907F35
:101C6000D1F4D12C1EC090E0389FF001399FF00DC7
:101C70001124E654FE4F6181651306C06081641330
:101C800003C062816E110FC001968770D5CF9F701F
:101C900011F0882331F3805E883018F3C8010E9468
:101CA000930CFD2CA5CFEE2009F4A2CF8091EF017B
:101CB00081608093EF01F12C9BCF251306C0941314
:101CC00004C0F801EE2009F48DC04D875E878D8534
:101CD0009E850E94F40C882319F1EE2009F1809171
:101CE000EF01803270F02091EA013091EB013887EA
:101CF0002F831986BB86AA868C87CE0107960E9401
:101D0000930C86E0F801AAEEB1E001900D928A955D
:101D1000E1F70E94460D0E94380DFF24F39468CF2E
:101D2000C8010E94930CF9CF311113C07A2DB98AE2
:101D3000A88A6E2D89890E94F80C8AEE91E00E9493
:101D4000930C86E0F60111928A95E9F70E94380D0E
:101D5000B2CF25130FC094130DC0E1100BC0F801D2
:101D60008583C8010E94930C86E0F60111928A9542
:101D7000E9F73ECF4D875E878D859E850E94F40CE6
:101D8000882371F2EE2061F28091EF01803208F435
:101D9000B8CF2091EA013091EB013A8329831B826D
:101DA000BD82AC828E83CE010196A9CFE83CF105BD
:101DB00008F041C0FE2CEE2009F4B2CF25132AC052
:101DC000941328C08091EF0180FD1BC0982F907F55
:101DD000C1F0F8018583903F31F0982F907F905F9C
:101DE0008F70892B8583C8010E94930C86E0F801CF
:101DF000AAEEB1E001900D928A95E1F70E94380DAC
:101E0000F7CE86E0F801AAEEB1E001900D928A9536
:101E1000E1F7EECE4D875E878D859E850E94F40C9E
:101E200081116FCF8091EF0181608093EF01C80134
:101E30000E94930CDDCE7A2DB98AA88A6E2D8989ED
:101E40000E94F80C86E0F60111928A95E9F7D6CF48
:101E5000EE2009F465CF4D875E878D859E850E94B3
:101E6000F40CF82E882309F45BCF86E0F801AAEE83
:101E7000B1E001900D928A95E1F78AEE91E00E941F
:101E800062090E94460DBACF81E08E25CBCE1F930A
:101E9000CF93DF93CDB7DEB72C970FB6F894DEBFA4
:101EA0000FBECDBF4F83588769877A878B879C8702
:101EB000CE0107960E949C0D882369F08A859B8538
:101EC000892B39F04F815885842F85238F3F09F066
:101ED00071C016E05FC086E0FE013796DE01119604
:101EE00001900D928A95E1F78A859B85892B89F36C
:101EF0008F81988589238F3F61F32091B90130E06C
:101F0000C9010196877099274091B80148171906B1
:101F100071F40E94D10C1092B9011092B80186E0C0
:101F2000EAEEF1E0DF011D928A95E9F7D2CF96E063
:101F3000929FD001939FB00D1124A654BE4FFE0175
:101F4000319601900D929A95E1F78093B9010E9424
:101F5000170DBFCF819FC001112486549E4F0E9450
:101F60009C0D8823E9F0E091B8011E9FF001112437
:101F7000E654FE4F40815181628173818481958155
:101F80000E94070D8091B80190E001968770992713
:101F90008093B8018091B8019091B9018913DACF8B
:101FA0002C960FB6F894DEBF0FBECDBFDF91CF9158
:101FB0001F91089569857A858B859C850E94070D00
:101FC00088CF08950C94E10F0E94E20F60932602DF
:101FD0007093270280932802909329020C94BB0CE3
:101FE00008950C94E40F0F931F9300912602109113
:101FF00027022091280230912902602B712B822B1D
:10200000932B1F910F910C94E40F0F931F9300914A
:102010002602109127022091280230912902602384
:102020007123822393231F910F910C94E40F0F933C
:102030001F930091260210912702209128023091CF
:10204000290260277127822793271F910F910C94F3
:10205000E40F0C94E10F0C9429100E942B10609354
:1020600022027093230280932402909325020C9401
:10207000BB0C60E070E0CB010C942D100F931F930C
:1020800041E050E060E070E08A019B0104C0000F75
:10209000111F221F331F8A95D2F7C901B8011F9162
:1020A0000F910C942D100F931F9341E050E060E0CE
:1020B00070E004C0440F551F661F771F8A95D2F742
:1020C0008091220290912302A0912402B0912502D6
:1020D0008A019B01082B192B2A2B3B2BC901B80124
:1020E0001F910F910C942D100F931F9341E050E01E
:1020F00060E070E004C0440F551F661F771F8A958B
:10210000D2F7CB01BA0160957095809590950091BA
:102110002202109123022091240230912502602393
:102120007123822393231F910F910C942D100F93F1
:102130001F9341E050E060E070E004C0440F551F81
:10214000661F771F8A95D2F7809122029091230211
:10215000A0912402B09125028A019B01082719272A
:102160002A273B27C901B8011F910F910C942D100C
:102170000F931F93009122021091230220912402B9
:1021800030912502602B712B822B932B1F910F9185
:102190000C942D100F931F93009122021091230293
:1021A00020912402309125026023712382239323FE
:1021B0001F910F910C942D100F931F9300912202E9
:1021C000109123022091240230912502602771276B
:1021D000822793271F910F910C942D1008952FE0C3
:1021E000929F800D1124982F977041E001C0440FF9
:1021F0009A95EAF786958695869595E0899FF001F0
:102200001124E051FE4F90E080E070E05191DF0139
:1022100011979B01082E02C0369527950A94E2F784
:10222000217021952527242325272C93019685307D
:10223000910561F708952FE0929F800D1124982F4A
:10224000977086958695869525E0829FF0011124EA
:10225000E051FE4F50E040E080E0219130E0092E57
:1022600002C0369527950A94E2F721703327042E91
:1022700001C0220F0A94EAF7822B4F5F5F4F45306F
:10228000510559F70895BF92CF92DF92EF92FF92D6
:102290000F931F93CF93DF938C01C0902202D090B5
:1022A0002302E0902402F090250280912602909172
:1022B0002702A0912802B0912902C82AD92AEA2A25
:1022C000FB2ACFE1D0E0BC2ED701C6010C2E04C002
:1022D000B695A795979587950A94D2F780FD0EC07D
:1022E000219788F7B12C8B2DDF91CF911F910F9102
:1022F000FF90EF90DF90CF90BF900895B8018C2FA2
:102300000E94A702019761F3EECFCF93DF93EC0118
:102310000E944311BE01DF91CF910C94A7021F933D
:10232000CF93DF93EB019091B701992331F0CB016B
:10233000DF91CF911F910C948511882379F0CB0107
:102340000E944311182F682FCE010E94EF10BE018A
:10235000812FDF91CF911F910C94A702CB010E9496
:102360001B11182FF4CF682F80910001909101016B
:102370000C947313682F80910001909101010C94CB
:10238000751380910001909101010C947713809155
:102390002A02859585958595089580912A028770F2
:1023A000089590912A02977081E009F480E00895E1
:1023B00080913602089590913602892B80933602DF
:1023C000089580959091360298239093360208954F
:1023D00010923602089590913502892B8093350230
:1023E0000895809590913502982390933502089531
:1023F00010923502089510923402089580912B02B4
:10240000089508950C94011290912B02981721F0D1
:1024100080932B020C940212089580912B02882342
:1024200029F010922B0280E00C9402120895E091A2
:102430000001F0910101809136028083E09100015A
:10244000F0910101808190913502892B8083E09188
:102450000001F0910101808190913402892B8083E9
:1024600090912B02992381F0E0910001F0910101FC
:102470008081892B808380910001909101010E94CD
:102480002B1381110E940D12809100019091010186
:102490000C941C0808950C944A1298E0899F9001AE
:1024A0001124622B60932A020E94531080912A0209
:1024B0008595859585950C944B1210922A0280E0A3
:1024C0000C944B1290912A028095892380932A02C2
:1024D000282F277071F4282F082E000C330B921729
:1024E000130639F08595859585950E9474100C9496
:1024F0005D1208956FEF7FEF90E080E00C94411E35
:1025000090E080E00E941D1E21E08C3E9E4F09F06D
:1025100020E0822F089582E090E00C94151E83E065
:1025200090E00C94151ECF9384E090E00E94151E5D
:10253000C82F81E290E00E94151E982F8C2FCF911A
:102540000895CF93C92F682F84E090E00E94231E46
:102550006C2F81E290E0CF910C94231EAB01BC0163
:102560008FE090E00C94351EAB01BC0183E190E05C
:102570000C94351E60E070E0CB010C94B41260E066
:1025800070E0CB010E94AE120C94BA126CEE7EEF9A
:1025900090E080E00E94411E60E082E090E00E94B6
:1025A000231E60E083E090E00E94231E109226022A
:1025B00010922702109228021092290260E084E013
:1025C00090E00E94231E60E081E290E00E94231EC2
:1025D00060E085E090E00E94231E60E086E090E0ED
:1025E0000E94231E6FEF87E090E00E94231E40E0D0
:1025F00050E0BA0188E090E00E94351E60E08DE076
:1026000090E00E94231E40E050E0BA0188E190E093
:102610000E94351E60E087E190E00E94231E40E0AA
:1026200050E0BA018CE190E00E94351E60E080E24B
:1026300090E00E94231E40E050E0BA0188E190E063
:102640000E94351E0C94BF120C94C612682F8EE0A7
:1026500090E00C94231E9C012E5F3F4FAC01485F1D
:102660005F4F80E02417350709F40895F90191912F
:102670009F019923B9F38F5FF5CF662349F0FC01E1
:10268000329608962191261729F0E817F907D1F715
:1026900080E0089581E008959C01FC0132969FEF4F
:1026A00080E04191461751F09F3F19F4411101C05C
:1026B000982F8F5F8630A9F79F3F09F40895290F5F
:1026C000311D97FD3A95F90162830895FC01329618
:1026D00008962191261303C0DF0111971C92E81779
:1026E000F907B9F708950C944C130C9466130296ED
:1026F00026E0FC0111922A95E9F7089508950895BE
:102700000C947F130E94801380916E02843049F1F3
:102710001092380288E190E020E40FB6F894A89572
:10272000809360000FBE2093600080E00E948B02C7
:102730000E94801383B7817F846083BF83B78160E9
:1027400083BF7894889583B78E7F83BF0FB6F89444
:10275000A89580916000886180936000109260006D
:102760000FBE08950895CF930E947E130E94F40433
:102770000E94B213C0E08C2F0E948104892B31F497
:10278000CF5FC530C1F780E0CF91089581E0FCCFE5
:1027900008950C94C8130E94D10C0E9410080E9446
:1027A0008B020C94C9131F921FB61F9211248F9392
:1027B0009F93AF93BF9380913802811113C0809192
:1027C000640290916502A0916602B0916702419601
:1027D000A11DB11D8093640290936502A0936602CF
:1027E000B0936702BF91AF919F918F911F901FBED1
:1027F0001F90189582E084BD93E095BD9AEF97BD38
:1028000080936E0008952FB7F894809164029091A0
:102810006502A0916602B09167022FBF08959C01E6
:102820004FB7F8948091640290916502A09166027E
:10283000B09167024FBF821B930B089578941F924B
:102840001FB61F9211248F939F93AF93BF938091D4
:10285000640290916502A0916602B09167020196B0
:10286000A11DB11D8093640290936502A09366023E
:10287000B0936702BF91AF919F918F911F901FBE40
:102880001F90189581E08093E00080E28093D8004B
:102890001092C9008FE19EE40197F1F700C000009B
:1028A00087E090EBDC018093770290937802A0930D
:1028B0007902B0937A0288E19CE00FB6F894A8956B
:1028C000809360000FBE90936000FFCF0C947A124B
:1028D0000E94F4048FE39CE90197F1F700C0000027
:1028E0000E94F40480E00E94810480FF04C00E94E2
:1028F00066140C94421408950E948012811102C043
:102900000E9424130E948B12809337020E9493121C
:1029100090936902809368020E948F12682F70E082
:1029200090E080E00E94F10F6091220270912302FA
:1029300080912402909125020C942B1080913F02EB
:1029400080FF12C06091070185E0689FB0011124EB
:10295000759567957595679560387105A8F561154A
:102960007105A1F1862F089581FF09C060910701CB
:1029700085E0689FB001112475956795EDCF609152
:10298000070182FD0AC080913E028823D1F0909118
:10299000060160910701891728F085E0689FB00162
:1029A0001124DACF869FB001112485E0869F900123
:1029B000879F300D1124692F70E0C9010E94E71D27
:1029C000CBCF65E070E0CECF8FE7089581E008952A
:1029D00080913F0280FF0CC06091030170E075950B
:1029E0006795759567956115710549F1862F08956D
:1029F00081FF06C06091030170E075956795F3CF84
:102A00006091030182FD0BC090913D029923A1F0DA
:102A10006091020180910301961738F0682F70E0F1
:102A20006038710500F38FE70895899FC001112474
:102A300070E00E94E71DF4CF61E070E0D7CF81E045
:102A40000895803F31F40E949E1481958093430243
:102A50000895813F19F40E949E14F8CF823F31F40B
:102A60000E949E148195809342020895833F19F439
:102A70000E949E14F8CF893F29F40E94E8148093A5
:102A8000440208958A3F21F40E94E8148195F7CF0B
:102A90008B3F31F40E94E81481958093450208959C
:102AA0008C3F19F40E94E814F8CF843F31F48091F0
:102AB00041028160809341020895853F21F4809115
:102AC00041028260F7CF863F21F480914102846009
:102AD000F1CF873F21F4809141028860EBCF883F9E
:102AE00021F4809141028061E5CF8D3F31F48091E6
:102AF0003F02816080933F0208958E3F21F48091D0
:102B00003F028260F7CF8F3FB9F780913F02846028
:102B1000F1CF90914202803F59F48091430287FFA8
:102B20000DC01092430291110BC010923E0208C0DA
:102B3000813F81F48091430218169CF3992381F020
:102B40008091440290914502892B09F064C0109253
:102B50003D020895823F49F497FFF0CF1092420260
:102B6000809143028111ECCFE0CF833F19F4191615
:102B7000ACF3E4CF20914402893F29F41216F4F615
:102B800010924402DBCF8A3F19F427FFD7CFF8CF4A
:102B9000209145028B3F29F427FFD0CF10924502A8
:102BA000CDCF8C3F19F41216CCF3C8CF843F31F44B
:102BB000809141028E7F80934102C0CF853F21F4F6
:102BC000809141028D7FF7CF863F21F480914102B1
:102BD0008B7FF1CF873F21F480914102877FEBCF3C
:102BE000883F21F4809141028F7EE5CF8D3F31F403
:102BF00080913F028E7F80933F02A0CF8E3F21F4D1
:102C000080913F028D7FF7CF8F3F09F097CF809162
:102C10003F028B7FF0CF08950E9403149C01909196
:102C2000420280914302982B21F030933C02209382
:102C30003B029091440280914502982B21F0309301
:102C40003A022093390280E492E00C942708EF9234
:102C5000FF920F931F93CF93DF9300D000D000D04B
:102C6000CDB7DEB786E0E0E4F2E0DE011196019038
:102C70000D928A95E1F7E0904202F09043020091B4
:102C800044021091450210924202109243021092A7
:102C90004402109245028E2D8F2991F080913B02C3
:102CA00090913C020E940F14AC0190913E02992336
:102CB00009F43FC0809108018417150608F447C045
:102CC000802F812B91F08091390290913A020E94DD
:102CD0000F14AC0190913D02992309F477C08091C3
:102CE00004018417150608F47FC080914202909178
:102CF0004302892B90914402892B90914502892BA4
:102D000011F00E940C1686E0FE013196A0E4B2E0BC
:102D100001900D928A95E1F726960FB6F894DEBFE2
:102D20000FBECDBFDF91CF911F910F91FF90EF901C
:102D30000895209109018AE0289F90011124241709
:102D4000350708F0BDCF9F5F90933E0202C09F3FC2
:102D5000D1F7EE2059F00E949E149FEF1E140CF440
:102D600091E0899F802D112480934202FF2059F029
:102D70000E949E149FEF1F140CF491E0899F802DF8
:102D800011248093430230914202332309F498CFF7
:102D900020914302222309F493CF45EB3403C00171
:102DA0001124992359F09093420245EB240390019A
:102DB0001124332339F03093430282CF81E0809392
:102DC0004202F3CF81E0809343027ACF2091050144
:102DD0008AE0289F900111242417350708F085CF39
:102DE0009F5F90933D0202C09F3FD1F7002359F0AF
:102DF0000E94E8149FEF10160CF491E0899F802D3B
:102E0000112480934402112359F00E94E8149FEF8B
:102E100011160CF491E0899F802D112480934502B6
:102E200030914402332309F460CF209145022223DC
:102E300009F45BCF45EB3403C0011124992359F009
:102E40009093440245EB240390011124332339F07D
:102E5000309345024ACF81E080934402F3CF81E072
:102E60008093450242CF86E0E0E4F2E0DF011D926C
:102E70008A95E9F710923E0210923D0210923F02AD
:102E8000089580914E020895CF93DF9300D00F9262
:102E9000CDB7DEB790916E02943019F589837B83AC
:102EA0006A8382E08093E9008FEF9091E80081507F
:102EB00095FD06C095ED9A95F1F700008111F5CFCB
:102EC0008091E80085FF0DC050E040E063E070E0D5
:102ED000CE0101960E9456198091E8008E7780936A
:102EE000E8000F900F900F90DF91CF910895BC01F3
:102EF00084E00C944417BC0183E00C9444179C01BB
:102F000082E08093E9009FEF8091E800915085FD79
:102F100006C085ED8A95F1F700009111F5CF8091FB
:102F2000E80085FF0CC050E040E066E070E0C901B9
:102F30000E9456198091E8008E778093E8000895EA
:102F4000CF93DF93EC0181E08093E9008FEF9091C4
:102F5000E800815095FD06C095ED9A95F1F70000C7
:102F60008111F5CF8091E80085FF14C050E040E06A
:102F700068E070E0CE010E9456198091E8008E77DB
:102F80008093E80088E0FE01A6E4B2E001900D9293
:102F90008A95E1F7DF91CF91089580916D028111BB
:102FA00009C00E94E61A0E94431B8091E2008460DF
:102FB0008093E200089510926D0208950895089597
:102FC0000C94CB1342E061EC81E00E94621A42E271
:102FD00061EC82E00C94621A80917002833009F4F3
:102FE0005FC030F48130C1F1823009F49BC0089594
:102FF0008A3009F487C08B3009F46DC0893009F03C
:103000004EC080916F02813209F049C080917302F5
:1030100090917402029708F042C08091E800877F87
:103020008093E8008091E80082FF35C09091F30022
:103030008091F200029729F48091F1008B7F81301A
:1030400021F48091F10080934E028091E8008B770B
:103050008093E8000C94961A80916F02813AF9F4FB
:103060008091E800877F8093E800809173029091BF
:103070007402892B61F468E086E492E070E00E94BB
:10308000A5198091E8008B778093E800089560E0AF
:1030900090E080E0F3CF80916E028111C3CF08955C
:1030A00080916F02813AD9F78091730290917402F6
:1030B000892BA9F78091E800877F8093E8008091B1
:1030C000E80080FFFCCF809114018093F100809193
:1030D000E8008E77BDCF80916F02813201F7809139
:1030E000730290917402892BD1F68091E800877F5A
:1030F0008093E8000E94961A8091710280931401D7
:103100000C94D10C80916F02813249F68091E800D5
:10311000877F8093E8000E94961A809172028093C4
:103120004F02089580916F02813A09F0B8CF8091E3
:10313000E800877F8093E8008091E80080FFFCCF63
:1031400080914F02C2CF84B7877F84BF0FB6F894B7
:10315000A895809160008861809360001092600063
:103160000FBE80E890E00FB6F894809361009093D2
:1031700061000FBE0E946F080E94E61A0E94431B66
:103180008091E20084608093E20078940E94CC1DDC
:103190000E947B088AE091E00E940B0880916E02F9
:1031A000853039F00E9485080E9479080E947A08CB
:1031B000F5CF0E94821380916C02882379F30E94DC
:1031C000B313882359F30E944019E8CF0C94E818F0
:1031D000292F33272330310519F168F421303105C7
:1031E00009F444C02230310509F445C090E080E084
:1031F00030E020E025C02132310549F1223231058D
:10320000A9F780E490E02AED32E061157105C1F084
:1032100081E890E029E532E06130710589F0E6CF80
:1032200099278130910581F0009729F00297F1F6F6
:10323000E8EDF1E002C0E8E0F2E0849190E09F0167
:10324000FA01318320830895E4EFF1E0F6CF89E0BD
:1032500090E02EE132E06115710591F389E090E094
:1032600027E332E06130710559F3C0CF82E190E08D
:1032700027E432E0E5CF8BE390E02CE032E0E0CFD2
:1032800080E189BD82E189BD09B400FEFDCF809156
:10329000D8008F7D8093D8008091E0008260809379
:1032A000E0008091E00081FDFCCF0895AF92BF92D5
:1032B000CF92DF92FF920F931F93CF93DF936C0116
:1032C000EB018A010E94B51AF82E811123C0011565
:1032D000110539F0F80180819181C81BD90BC80E06
:1032E000D91EB12CA12C2097A9F08091E80085FD72
:1032F00022C08091E8008E778093E80001151105C7
:10330000A1F0F80180819181A80EB91EB182A0823E
:1033100085E0F82E8F2DDF91CF911F910F91FF90B7
:10332000DF90CF90BF90AF9008950E94B51A882388
:10333000D1F2F82EEFCFF60181916F018093F10069
:103340002197FFEFAF1ABF0ACECFFC018091750223
:103350009091760286179707A0F06115710529F400
:103360009091E8009E779093E80090E061157105D8
:1033700051F4911108C08091E80082FF34C080E0D0
:103380000895BC01F2CF80916E028823C1F185308F
:10339000C1F18091E80083FD30C08091E80082FD9A
:1033A000EACF8091E80080FFE1CF8091F300209187
:1033B000F200382F6115710519F02830310558F0E9
:1033C00091E02830310509F090E02091E8002E7757
:1033D0002093E800CBCF81918093F1006150710977
:1033E0002F5F3F4FE7CF80916E02882341F08530F9
:1033F00041F08091E80083FFBECF81E0089582E034
:10340000089583E00895FC01809175029091760201
:1034100086179707A0F06115710529F48091E800DF
:103420008E778093E80090E06115710551F4911159
:1034300008C08091E80082FF35C080E00895BC019B
:10344000F2CF80916E028823C9F18530C9F1809155
:10345000E80083FD31C08091E80082FDEACF8091D1
:10346000E80080FFE1CF8091F3002091F200382F37
:103470006115710519F02830310558F091E02830B8
:10348000310509F090E08091E8008E778093E800A4
:10349000CBCF84918093F1003196615071092F5FF9
:1034A0003F4FE6CF80916E02882341F0853041F096
:1034B0008091E80083FFBDCF81E0089582E0089508
:1034C00083E00895982F973028F08F708093E9005B
:1034D00081E008959093E900242F762F50E098170B
:1034E00031F07091EC002091ED005091F00021FD41
:1034F00002C09F5FE8CF3091EB003E7F3093EB003E
:103500003091ED003D7F3093ED003091EB00316064
:103510003093EB007093EC002093ED005093F0009B
:103520002091EE0027FDE5CF80E0089580916F02A5
:1035300087FF13C08091E80082FF06C08091E800F9
:103540008B778093E80004C080916E028111F2CFE6
:10355000089580916E028823D9F38091E80080FF5E
:10356000F8CF8091E8008E77ECCF2091E400309185
:10357000E50095E6A9012091EC00822F817020FFE3
:1035800006C08091E80080FF06C080E00895209189
:10359000E80022FD1AC080916E02882389F08530F0
:1035A00089F08091EB0085FD0FC02091E4003091FF
:1035B000E50042175307F9F29150E1F684E00895CF
:1035C00082E0089583E0089581E008950E94541BED
:1035D0000E945C1BE0EEF0E0808181608083E8ED7A
:1035E000F0E080818F77808319BCA7EDB0E08C91EB
:1035F0008E7F8C9380818F7E808310926D020895E0
:103600000F931F93CF93DF930E94541B0E945C1B68
:10361000C8EDD0E088818F7788838881806888832F
:1036200088818F7D888319BC10926E0210926A0285
:1036300010926C0210926B0200EE10E0F801808193
:103640008B7F808388818160888342E060E080E0B6
:103650000E94621AE1EEF0E080818E7F8083E2EECC
:10366000F0E0808181608083808188608083F801C0
:1036700080818E7F8083888180618883DF91CF9174
:103680001F910F910895E8EDF0E080818F7E808397
:10369000E7EDF0E080818160808384E082BF81E09B
:1036A00080936D020C94001BE8EDF0E080818E7F2A
:1036B00080831092E20008951092DA001092E100E7
:1036C00008951F920F920FB60F9211242F933F93DC
:1036D0004F935F936F937F938F939F93AF93BF931A
:1036E000EF93FF938091E10082FF0BC08091E20095
:1036F00082FF07C08091E1008B7F8093E1000E94F0
:10370000CB1D8091DA0080FF19C08091D80080FF26
:1037100015C08091DA008E7F8093DA008091D90005
:1037200080FF96C080E189BD82E189BD09B400FEB9
:10373000FDCF81E080936E020E94CD178091E10061
:1037400080FF19C08091E20080FF15C08091E200E7
:103750008E7F8093E2008091E20080618093E2009E
:103760008091D80080628093D80019BC85E0809356
:103770006E020E94DF178091E10084FF2BC08091D0
:10378000E20084FF27C080E189BD82E189BD89B55F
:10379000982F917080FFFBCF8091D8008F7D809310
:1037A000D8008091E1008F7E8093E1008091E2005B
:1037B0008F7E8093E2008091E20081608093E2003E
:1037C00080916A02882309F449C084E080936E02E4
:1037D0000E94E0178091E10083FF29C08091E20000
:1037E00083FF25C08091E100877F8093E10082E024
:1037F00080936E0210926A028091E1008E7F809326
:10380000E1008091E2008E7F8093E2008091E200EF
:1038100080618093E20042E060E080E00E94621AF2
:103820008091F00088608093F0000E94DE17FF9185
:10383000EF91BF91AF919F918F917F916F915F9128
:103840004F913F912F910F900FBE0F901F901895A1
:1038500019BC10926E020E94DB1770CF8091E300BA
:1038600087FD93E090936E02B3CF1F920F920FB635
:103870000F9211242F933F934F935F936F937F93F6
:103880008F939F93AF93BF93CF93DF93EF93FF9368
:10389000D091E900DF708091EC00C82FC17080FDED
:1038A000C0E81092E9008091F000877F8093F000DB
:1038B00078940E94791C1092E9008091F000886051
:1038C0008093F000CD2BCF70C093E900FF91EF9172
:1038D000DF91CF91BF91AF919F918F917F916F9128
:1038E0005F914F913F912F910F900FBE0F901F90BE
:1038F00018951F93CF93DF93CDB7DEB7AA970FB676
:10390000F894DEBF0FBECDBF8FE692E02091F100AC
:10391000FC012193CF01F2E087379F07B9F70E949E
:10392000EC178091E80083FF1EC180916F02909197
:1039300070029A3008F017C1E92FF0E0ED58F14E0F
:103940000C94FB1D803899F0823809F00CC18091ED
:1039500073028F70873008F006C18093E900809170
:10396000EB0085FB882780F91092E90006C0809162
:103970006B0290916C02911182609091E800977FA8
:103980009093E8008093F1001092F1008091E8009C
:103990008E77E5C0882309F4D3C0823009F0E3C0F4
:1039A000809171028111D6C0809173028F702FEFC8
:1039B000280F263008F0D7C08093E9002091EB0053
:1039C00020FFC8C0933031F48091EB008062809377
:1039D000EB00C0C09091EB0090619093EB0021E070
:1039E00030E001C0220F8A95EAF72093EA00109296
:1039F000EA008091EB008860EACF8111B4C0109199
:103A000071021F778091E3008078812B8093E3001F
:103A10008091E800877F8093E8000E94961A809149
:103A2000E80080FFFCCF8091E30080688093E30092
:103A300082E0111183E080936E0295C0805882303D
:103A400008F091C080917102909172028C3D23E048
:103A50009207A1F583E08A838AE289834FB7F894BD
:103A6000DE01139620E03EE051E2E32FF0E05093B8
:103A70005700E49120FF03C0E295EF703F5FEF70C5
:103A80008E2F90E0EA30C0F0C7968D939D932F5F04
:103A9000243159F74FBF8091E800877F8093E80079
:103AA0006AE270E0CE0101960E94A5198091E800BB
:103AB0008B778093E80057C0C096E7CF6091730280
:103AC00070917402AE014F5F5F4F0E94E618BC0117
:103AD000892B09F448C09091E800977F9093E80003
:103AE00089819A810E94031AE1CF8038E1F58091A3
:103AF000E800877F8093E80080916A028093F1005C
:103B000045CF811130C090917102923060F5809163
:103B1000E800877F8093E80090936A020E94961ADB
:103B200080916A02882311F084E005C08091E3004F
:103B300087FDFACF81E080936E020E94E21713C0E6
:103B400080917102813079F481E0933009F080E056
:103B500080936C021092E9008091E800877F809347
:103B6000E8000E94961A8091E80083FF0AC08091C5
:103B7000E800877F8093E8008091EB00806280936B
:103B8000EB00AA960FB6F894DEBF0FBECDBFDF9153
:103B9000CF911F9108950895CF9380916E0288234D
:103BA000A1F0C091E900CF709091EC00892F817055
:103BB00090FD80E8C82B1092E9008091E80083FD19
:103BC0000E94791CCF70C093E900CF91089597FBB4
:103BD000072E16F4009407D077FD09D00E94011E2D
:103BE00007FC05D03EF4909581959F4F0895709500
:103BF00061957F4F0895EE0FFF1F0590F491E02D22
:103C00000994AA1BBB1B51E107C0AA1FBB1FA61723
:103C1000B70710F0A61BB70B881F991F5A95A9F775
:103C200080959095BC01CD010895F999FECF92BD84
:103C300081BDF89A992780B50895A8E1B0E042E0E7
:103C400050E00C94491E262FF999FECF92BD81BDFC
:103C5000F89A019700B4021639F01FBA20BD0FB6CA
:103C6000F894FA9AF99A0FBE08950396272F0E94A6
:103C7000241E0E94231E252F0E94241E242F0C94F4
:103C8000241E0196272F0E94241E0C94231EDC0163
:103C9000CB01FC01F999FECF06C0F2BDE1BDF89A57
:103CA000319600B40D9241505040B8F70895F89401
:103CB000FFCFAA0AAA0A020B020B540B700BD70AF9
:103CC000D70A7B0B070C160C160CE00CE00CE90C69
:103CD000E90CEB0CE90CE90CE90CE00CE00CF00C45
:103CE000E90CE90CF00CA21CCA1CB31DCA1CB31DC4
:0A3CF000FD1C1E1DB31D751D811D76
:103CFA002C022808641E140A321E4117A0177F17C7
:103D0A007B17771701E200E900EA00B500B600B7B1
:103D1A0000CD008301CC008A019201940121022383
:103D2A000224022502260227022A02B300B4006FE7
:103D3A00007000818283F7F5F4F1F0379091929345
:103D4A0094969734663536C6F66700FF010001007F
:103D5A0000FFFF0000010001FF00E200E900EA00A5
:103D6A00B500B600B700CD008301CC008A019201EC
:103D7A0094012102230224022502260227022A0292
:0C3D8A00B300B4006F0070008182830061
:00000001FF
