:100000000C948A010C94D1010C94D1010C94D1016F
:100010000C94D1010C94D1010C94D1010C94D10118
:100020000C94D1010C94D1010C94FB1B0C94CF1CAB
:100030000C9432170C94D1010C94D1010C94D10181
:100040000C94D1010C94D1010C94D1010C94D101E8
:100050000C94D1010C9489170C94D1010C94D1010A
:100060000C94D1010C94D1010C94D1010C94D101C8
:100070000C94D1010C94D1010C94D1010C94D101B8
:100080000C94D1010C94D1010C94D1010C94D101A8
:100090000C94D1010C94D1010C94D1010C94D10198
:1000A0000C94D1010C94D1010C94D10129001E00B3
:1000B0001F0020002100220023002400250026002C
:1000C00027002D002E002A00A8002B0014001A0083
:1000D0000800150017001C0018000C001200130087
:1000E0002F003000280046003900040016000700E9
:1000F00009000A000B000D000E000F003300340051
:10010000310000004C00E10031001D001B00060022
:100110001900050011001000360037003800E50016
:1001200052003500E000E300E200000000000000A3
:100130002C0000000000E6000151E40050005100D6
:100140004F0001003A003B003C003D003E003F00F4
:10015000400041004200430044004500010001000E
:100160000100010001000100010001000100010087
:100170000100010001000100010001004B0001002D
:100180000100010001000100010001000100010067
:10019000010001000100010000004E00010001000B
:1001A0000100010001000100010001000100010047
:1001B00001000100010001004900010001000100EF
:1001C000000000000000010000000000010001002C
:1001D00001000100010001001A036D0069006E00BA
:1001E00069005F0065006C006900780069007600B6
:1001F0007900000012036D0069006E006900620062
:100200006F006900730000000403090409023B0049
:10021000020100A0FA090400000103010100092104
:10022000110100012240000705810308000A0904AA
:1002300001000103000000092111010001227B00DF
:100240000705820320000A1201100100000008EDDA
:10025000FE000001000102000105010902A1018563
:10026000020901A1000509190129081500250195B8
:1002700008750181020501093009311581257F9535
:10028000027508810609381581257F950175088159
:1002900006050C0A38021581257F9501750881062F
:1002A000C0C005010980A101850319012AB7001505
:1002B0000126B700950175108100C0050C0901A148
:1002C00001850419012AA002150126A002950175D5
:1002D000108100C005010906A101050719E029E701
:1002E00015002501950875018102950175088101A8
:1002F0000507190029FF150026FF009506750881DE
:1003000000050819012905950575019102950175EA
:10031000039101C011241FBECFEFDAE0DEBFCDBFD5
:1003200004B603FE27C08091850290918602A091B9
:100330008702B09188028730904BA740B04BD1F430
:100340001092850210928602109287021092880203
:1003500014BE84B7877F84BF0FB6F894A8958091A8
:100360006000886180936000109260000FBEE0E042
:10037000F8E3099511E0A0E0B1E0EEE2FEE302C08F
:1003800005900D92AC39B107D9F722E0ACE9B1E0A4
:1003900001C01D92A538B207E1F70E9437190C94ED
:1003A000F11E0C940000CF93DF93D62F0E94960885
:1003B000C82F882331F0DD2341F089EA0E948C0D9B
:1003C000CD2F8C2FDF91CF9108958AEA0E948C0D5A
:1003D000F8CF81E0089581E008950C94EB01089531
:1003E0000C94EF011F93CF93DF9300D000D00F92B6
:1003F000CDB7DEB749835A836B833091D2018981AF
:100400009A8131111DC06623B9F02223A9F00E9400
:100410007214182F682F89819A810E941E14698195
:100420007A81812F0F900F900F900F900F90DF9196
:10043000CF911F910C94B0020E944A14182FEFCF55
:100440000E94721469817A81EDCFFC01262F4081D0
:1004500051816281738184810C94F201CF93DF9387
:10046000EC0160E00E942502BE01DF91CF910C9467
:10047000F0010E94B0040C94D5040C94D8040895A3
:100480000E9400100E943F022FEF84E39CE0215065
:1004900080409040E1F700C000000C94AD170F932E
:1004A0001F93CF93DF938C0161E00E942502EC0142
:1004B000B8010E94ED018823A9F1B801CE010E9484
:1004C0005A09882379F1B801CE010E94AC0988232A
:1004D00049F1B801CE010E94CF0A882319F1F80131
:1004E0008281882361F0CB35FDE5DF0721F170F4CF
:1004F000C115ECE5DE07A1F0CF3DDC45C9F0C80130
:10050000DF91CF911F910F910C94E901CC358DE5CE
:10051000D807A1F0CD35DD4591F70E941915EFCF31
:100520000E94400280E0DF91CF911F910F910895CA
:100530000E948516F7CF0E942215E1CF0E94251553
:10054000DECF08950C94A10281E008950C94A402DA
:10055000CF93C82F0E94A2028C2FCF910C94A60299
:10056000972F70E02FE0929F600D711D1124FB0109
:100570009BE4899FE00DF11D1124EE0FFF1FE45550
:10058000FF4F859194910895CF93DF930E94B0021D
:100590000E94BE03EC01811521E5920708F042C0DC
:1005A000811530E5930708F09DC0883E910530F530
:1005B000803E910508F092C0883A910588F4853A0A
:1005C000910508F084C08130910509F487C0009737
:1005D00009F484C0049708F081C0D0E0C0E07EC078
:1005E0008F3B9105D0F7C85AD0E0CC0FDD1FCB5E12
:1005F000DE4F0990D881C02DD46470C0811590421F
:1006000050F4C11581E0D80708F068C0CD3ED1058F
:1006100020F3D06563C0C11590E4D907F0F2DF7014
:10062000D06A5CC0811525E5920700F5811534E597
:10063000930708F08BC0811543E5940708F073C059
:10064000C11582E5D80708F469C0CE0183709927E7
:1006500021E030E002C0220F331F8A95E2F7C695F1
:10066000C69580E2C89FE001112454C0C11599E5E8
:10067000D907A8F4C11528E5D20708F06CC0C11548
:1006800036E5D30708F0A9CF8C2F0E945504C82F58
:10069000D0E0DC2FCC27CC27DF71D0621FC0C11582
:1006A0004AE5D40708F45CC0CE019056811590420B
:1006B00008F093CF8D2F8F710E94550490E0982FF2
:1006C000882788279F719C012C2BE901E6CFC55A0A
:1006D000D0E0CD5BDE4FC881D0E0D064CE01DF91A9
:1006E000CF910895E4E096958795EA95E1F78370B8
:1006F0002C2F26952695237040E2249F90011124EB
:10070000382B8C2F8370C1E0D0E002C0CC0FDD1FEE
:100710008A95E2F7C22BD32BDC68E0CFDC2FCC2705
:10072000C16FD06ADBCF8370992721E030E002C02F
:10073000220F331F8A95E2F7C695C69590E2C99FAE
:10074000E0011124C22BD32BDA68C8CFD82FCC27D5
:10075000C46FD06AC3CFDC2FCC27C06FD06ABECFA6
:100760008C2F8F700E94550434E0D695C7953A952A
:10077000E1F7CF709C2FEC01D069B0CF82389105A2
:10078000B1F1B0F48133910509F475C048F48932B0
:10079000910509F469C08A32910509F473C008957E
:1007A0008533910509F459C08933910501F1089504
:1007B000833E9105A9F138F4803E9105F9F0823E1F
:1007C000910549F10895863E9105A9F1873E91056D
:1007D000C9F1843E910519F520915F0221FF1FC0E8
:1007E00080915E0284FD14C087EE90E00895209110
:1007F0005E022370A1F080EE90E0089520915E02E9
:1008000020FD47C030915F0230FF09C024FF44C083
:1008100090E080E004C020915E0222FDF7CF0895B1
:1008200020915E0222FD3BC030915F0230FDE3CF9C
:1008300024FFF5CFEDCF20915E0223FFF0CF24FD02
:10084000E7CFD2CF20915E0223FD2CC030915F0212
:1008500031FFEECF84EE90E0089520915E0225FFF7
:10086000DECF89E290E0089520915E0225FFD7CF88
:1008700085E390E0089520915E0226FFD0CF8AE2C2
:1008800090E0089520915E0226FFC9CF81E390E0B9
:10089000089589E390E0089583EE90E0089582EE54
:1008A00090E0089586EE90E0089590915E0292FFA8
:1008B00006C0282F28712830F9F4877F846093FFC1
:1008C00006C0282F28712831F1F4877E8461209199
:1008D0005F0220FF06C0382F38713830D9F4877F87
:1008E000816021FF06C0282F28712831D1F4877E2E
:1008F000816194FD877E0895282F24712430F9F6B4
:100900008B7F8860DCCF282F2471243101F78B7E08
:100910008861DDCF382F3171313019F78E7F8860D3
:10092000E0CF282F2171213121F78E7E8861E1CF20
:100930000C94DA150E9451058FE39CE90197F1F7B9
:1009400000C000000E94510580E00E94DA0480FF90
:1009500004C00E9498040C94AD1708950C949A0456
:100960000E94E015811102C00E9485160E94EB15BD
:10097000809352020E94F31590935F0280935E026F
:100980000E94AE040E94EF15682F70E090E080E0B6
:100990000E94201360913D0270913E0280913F02BF
:1009A000909140020C945A1308950C94D404089525
:1009B0000C94D704E82FF0E0EE0FFF1FE659FD4F2F
:1009C000808191810895089580EA8A95F1F70895CC
:1009D00000C008950C94E404F894E82FE295EF70B9
:1009E000F0E031A1282F2F7081E090E001C0880F46
:1009F0002A95EAF7982F9095932391A392A1892B9A
:100A000082A3789408950F931F93CF93DF9385E388
:100A10000E94EC0486E30E94EC0486EC0E94EC0445
:100A200086EF0E94EC0487E60E94EC04C6E4D1E065
:100A300005E511E089910E94EC040C171D07D1F720
:100A4000109261021092600210926B0210926A0280
:100A5000109263021092620210926D0210926C0268
:100A6000109265021092640210926F0210926E0250
:100A70001092670210926602109271021092700238
:100A80001092690210926802109273021092720220
:100A900085E00E94D105DF91CF911F910F910C94B9
:100AA0003902AF92BF92DF92EF92FF920F931F93A2
:100AB000CF93DF93C5E5D1E000E612E0D12CEE2420
:100AC000E394F12C8991F894E82FE295EF70F0E02F
:100AD00021A18F70A70102C0440F551F8A95E2F72C
:100AE000CA01922F982B91A392A18095892382A36A
:100AF00078940E94E804E6E4F1E030E020E0B12CD4
:100B0000A12C4191A42FA295AF70B0E090968C914A
:100B100090E04F7002C0959587954A95E2F780FD69
:100B20003BC0C701022E02C0880F991F0A94E2F74A
:100B3000A82AB92A2F5F3F4F2F30310511F7FE0148
:100B4000319780810E94EC040E94EA04F8018081C0
:100B50009181A816B90619F1B182A08281E0D82A44
:100B60000E5F1F4FF1E0CA35DF0709F0ABCF2D2D27
:100B700045E06AE672E080E692E00E94D2050E94BB
:100B80003D028D2DDF91CF911F910F91FF90EF903E
:100B9000DF90BF90AF90089590E080E0C9CF80E0F3
:100BA000DECF0895FF920F931F93CF93DF93F82E1C
:100BB000092F162FD72FC42F222349F081E08093CD
:100BC000A0010E94621790939F0180939E018091E3
:100BD000A0018823A1F080919E0190919F010E9425
:100BE0007A17069760F0EF2DF02FA12FBD2F90E020
:100BF00080E0D0E08C179D0744F01092A001DF91B7
:100C0000CF911F910F91FF900895219131912D93D4
:100C10003D930196EFCF8091A70180FF12C06091B4
:100C2000050185E0689FB00111247595679575955C
:100C3000679560387105A8F561157105A1F1862FDA
:100C4000089581FF09C06091050185E0689FB001AA
:100C5000112475956795EDCF6091050182FD0AC05D
:100C60008091A6018823D1F0909104016091050143
:100C7000891728F085E0689FB0011124DACF869F9C
:100C8000B001112485E0869F9001879F300D1124CB
:100C9000692F70E0C9010E94811ECBCF65E070E032
:100CA000CECF8FE7089581E008958091A70180FF5E
:100CB0000CC06091010170E0759567957595679519
:100CC0006115710549F1862F089581FF06C0609175
:100CD000010170E075956795F3CF6091010182FD88
:100CE0000BC09091A5019923A1F060910001809122
:100CF0000101961738F0682F70E06038710500F335
:100D00008FE70895899FC001112470E00E94811E21
:100D1000F4CF61E070E0D7CF81E008958D3E31F4EB
:100D20000E940B0681958093AB0108958E3E19F4C5
:100D30000E940B06F8CF8F3E31F40E940B0681957E
:100D40008093AA010895803F19F40E940B06F8CF02
:100D5000893F29F40E9455068093AC0108958A3F8B
:100D600021F40E9455068195F7CF8B3F31F40E9404
:100D7000550681958093AD0108958C3F19F40E942A
:100D80005506F8CF9FE0980F983070F4815F990B6B
:100D900021E030E001C0220F8A95EAF78091A90195
:100DA000822B8093A90108958D3F31F48091A70192
:100DB00081608093A70108958E3F21F48091A7015F
:100DC0008260F7CF8F3FB9F78091A7018460F1CFA0
:100DD0004091AA018D3E59F48091AB0187FF0DC06F
:100DE0001092AB0141110BC01092A60108C08E3EBB
:100DF00081F48091AB0118169CF3442381F080911B
:100E0000AC019091AD01892B09F05AC01092A50157
:100E100008958F3E49F447FFF0CF1092AA018091C8
:100E2000AB018111ECCFE0CF803F19F41416ACF385
:100E3000E4CF9091AC01893F29F41916F4F6109291
:100E4000AC01DBCF8A3F19F497FFD7CFF8CF909151
:100E5000AD018B3F29F497FFD0CF1092AD01CDCFDC
:100E60008C3F19F41916CCF3C8CF9FE0980F983037
:100E700090F4815F990B21E030E0B90102C0660F68
:100E8000771F8A95E2F7CB0180959091A90189237C
:100E90008093A901B2CF8D3F31F48091A7018E7F5D
:100EA0008093A701AACF8E3F21F48091A7018D7F67
:100EB000F7CF8F3F09F0A1CF8091A7018B7FF0CFB3
:100EC00008950E9462179C019091AA018091AB0144
:100ED000982B21F03093A4012093A3019091AC01B1
:100EE0008091AD01982B21F03093A2012093A101B4
:100EF00088EA91E00C94150BEF92FF920F931F93E9
:100F0000CF93DF9300D000D000D0CDB7DEB786E01E
:100F1000E8EAF1E0DE01119601900D928A95E1F781
:100F2000E090AA01F090AB010091AC011091AD01ED
:100F30001092AA011092AB011092AC011092AD0177
:100F40008E2D8F2991F08091A3019091A4010E9490
:100F50007A17AC019091A601992309F43FC08091C2
:100F600006018417150608F447C0802F812B91F0E5
:100F70008091A1019091A2010E947A17AC019091F9
:100F8000A501992309F477C0809102018417150601
:100F900008F47FC08091AA019091AB01892B9091B8
:100FA000AC01892B9091AD01892B11F00E94610752
:100FB00086E0FE013196A8EAB1E001900D928A9593
:100FC000E1F726960FB6F894DEBF0FBECDBFDF91D6
:100FD000CF911F910F91FF90EF90089520910701FD
:100FE0008AE0289F900111242417350708F0BDCF0F
:100FF0009F5F9093A60102C09F3FD1F7EE2059F06A
:101000000E940B069FEF1E140CF491E0899F802D27
:1010100011248093AA01FF2059F00E940B069FEF34
:101020001F140CF491E0899F802D11248093AB0153
:101030003091AA01332309F498CF2091AB012223E8
:1010400009F493CF45EB3403C0011124992359F0DF
:101050009093AA0145EB240390011124332339F026
:101060003093AB0182CF81E08093AA01F3CF81E07E
:101070008093AB017ACF209103018AE0289F9001F1
:1010800011242417350708F085CF9F5F9093A501A1
:1010900002C09F3FD1F7002359F00E9455069FEFF1
:1010A00010160CF491E0899F802D11248093AC01DF
:1010B000112359F00E9455069FEF11160CF491E090
:1010C000899F802D11248093AD013091AC01332391
:1010D00009F460CF2091AD01222309F45BCF45EBE9
:1010E0003403C0011124992359F09093AC0145EBCE
:1010F000240390011124332339F03093AD014ACFFA
:1011000081E08093AC01F3CF81E08093AD0142CFC9
:1011100086E0E8EAF1E0DF011D928A95E9F7109296
:10112000A6011092A5011092A701089581E00895EB
:101130002098289A55985D9A83B181704D9905C081
:1011400090E0892B8093B001089592E0FACFE0916E
:10115000B001EE0FEE0FE093B00143B1842F817028
:1011600049B145FB222720F945FF02C022E030E0CB
:10117000822BE82BE093B001EF70F0E0E65AFE4FCF
:1011800080819091AF01890F8093AF0120E084307E
:1011900054F08091AE018F5F8093AE0160E080E0FB
:1011A0000E94D30121E08091AF018D3F54F48091E2
:1011B000AE0181508093AE0161E080E00E94D301D6
:1011C00021E08091AF01082E000C990B64E070E0E3
:1011D0000E94811E8093AF01822F08950F931F9369
:1011E000CF93DF93C42FD22FFC0182818823C9F0D3
:1011F0004093B3010E9462179093B2018093B101B2
:1012000080E28C0F883008F050C0C77081E001C0C8
:10121000880FCA95EAF7DF91CF911F910F910C9437
:10122000940D1091B301141335C08091B1019091C8
:10123000B2010E947A17883C910560F5C0E2CD0F9B
:101240001D17B9F080E2810F883040F4177081E0FB
:1012500001C0880F1A95EAF70E949B0DC83048F428
:1012600081E09D2F977001C0880F9A95EAF70E9440
:10127000940D802F0E948C0DC830B8F4D77081E097
:1012800001C0880FDA95EAF7DF91CF911F910F9196
:101290000C949B0D80E28C0F883038F4C77081E08D
:1012A00001C0880FCA95EAF7EFCFDF91CF911F9168
:1012B0000F9108950F939C01CB01243F4CE5340717
:1012C00059F1A8F4293DFCE53F0701F12A3D4CE521
:1012D0003407D1F1283D3C4591F406E221EE41EE80
:1012E00068ED7CE50E94EE0880E00F910895263FAE
:1012F000FCE53F07E9F0B0F0273F3C45F9F0FC0181
:101300008281882339F11092B301EFCF07E225EEF5
:1013100045EE69ED7CE5E6CF06E221EE40EE64EFB6
:101320007CE5E0CF07E225EE44EE65EF7CE5DACF21
:1013300006E221EE42EE66EF7CE5D4CF07E225EE31
:1013400046EE67EF7CE5CECF08E221E045EE6AEDA0
:101350007CE5C8CF81E0C9CFCF93DF93EC01FB01DF
:101360008281882309F419C1C230FCE5DF07C0F18E
:10137000C6319CE5D90730F09E012B5F3C452930F2
:10138000310570F50E94F31590935F0280935E0221
:10139000C031ECE5DE0709F4CFC008F05BC0C8300F
:1013A0008CE5D80709F4B6C088F5C430ECE5DE0753
:1013B00009F4A8C0C0F4C2308CE5D80709F49CC079
:1013C00080915E028260C330DC4509F498C0809150
:1013D0005E0290915F020E9401160E94001080E060
:1013E000DF91CF91089580915E028061C630ECE577
:1013F000DE0709F484C080915E028860C730DC4556
:1014000008F47DC080915E02806279C0CC308CE5AA
:10141000D80709F489C070F480915E028C60CA30EC
:10142000ECE5DE0709F46BC008F478C080915E0239
:101430008E7F65C0CE308CE5D80709F479C08091E5
:101440005E028B7FCF30DC4508F459C080915E028C
:101450008F7E55C0CC3FECE5DE0709F457C030F570
:10146000C3318CE5D80709F46FC078F4C131ECE5DD
:10147000DE0709F465C0C231DC4509F0A8CF0E943F
:10148000001080915E028F773AC0C5318CE5D80795
:1014900009F462C008F476C080915F028160CB3F9E
:1014A000DC4509F094CF80935F0291CFC115FDE533
:1014B000DF0709F44DC088F480915F028D7FCE3F35
:1014C0009CE5D90781F380915F028E7FCF3FDC4599
:1014D00050F380915F028360E6CFC230FDE5DF0705
:1014E00009F459C008F444C080E0C330DD4509F078
:1014F0006ECF0E9487166BCF80915E0281608093D1
:101500005E0265CF80915E028460F9CF80915F02B8
:101510008260C9CF80915E028064F1CF0E9400108A
:1015200080915E028068EBCF80915E028D7FE7CF75
:1015300080915E02877FE3CF80915E028F7DDFCF57
:1015400080915E028F7BDBCF80915E02837FD7CF5D
:1015500080915F028C7FA7CF80915E0282FB9927EA
:1015600090F921E0922790FB82F990FB83F9C7CF95
:1015700080915F02982F909591708E7F892B90FBC0
:1015800081F991CF0E94001090915E02892F97FB04
:1015900087F98058B4CF81E0ACCF81E021CFCF93E1
:1015A000DF93EB0186319C4511F50E9428159A8145
:1015B000992399F08A7A91E009F490E09093B4012C
:1015C000811109C089E20E94E2140E946B1580E03B
:1015D000DF91CF91089585E3F6CF8091B401811119
:1015E00004C089E20E94E914F0CF85E3FBCF81E0DB
:1015F000EFCF9093BA018093B9010895E091B901BA
:10160000F091BA01309721F00190F081E02D09941A
:1016100080E00895E091B901F091BA01309721F08E
:101620000280F381E02D09940895E091B901F091D1
:10163000BA01309739F022E0DC012C930480F58167
:10164000E02D099408952091B7013091B801281731
:10165000390771F09093B8018093B701E091B90117
:10166000F091BA01309721F00680F781E02D0994BE
:1016700008952091B5013091B6012817390771F00E
:101680009093B6018093B501E091B901F091BA0150
:10169000309721F00084F185E02D099408950E948F
:1016A0006E176093CE017093CF018093D001909319
:1016B000D1016093CA017093CB018093CC019093C8
:1016C000CD0108950E946E176093CE017093CF01F3
:1016D0008093D0019093D1016093C6017093C701AC
:1016E0008093C8019093C901089585B7806885BF2C
:1016F00085B7806885BF0895089508950C947C0B84
:1017000008950C94800B0E94750B88ED95E10E9462
:10171000D1170E947D0B0C947E0B81E008950C94F0
:101720008D0B089508950E94910B0C94920B0E94CA
:1017300059170E9403050E9498080C94810B8F9200
:101740009F92AF92BF92CF92DF92EF92FF920F9350
:101750001F93CF93DF93CDB7DEB72A970FB6F894D8
:10176000DEBF0FBECDBF0E94510581110E944F0BFD
:101770005CEB852E51E0952E10E000E0A02E802F2E
:101780000E94DA046C01F401E190F1904F01E81637
:10179000F90609F461C08091520281FD0E94E304C0
:1017A000C7018C259D25B12CEE24E394F12C9C01DE
:1017B0002E213F21232B09F449C00E948F0B88233F
:1017C000A9F0BE82AF82CE20DF2081E0CD2809F4CF
:1017D00080E088870E9462178160782F9A878987C6
:1017E0004E815F8168858A850E94560C000F111F0B
:1017F000F801E454FE4F80819181E826F926F182B8
:10180000E0820E94A70881110E94620B0E947C075F
:101810000E94FE0A9091BB018917A9F10E94FE0A5D
:101820008093BB012A960FB6F894DEBF0FBECDBFE2
:10183000DF91CF911F910F91FF90EF90DF90CF90AC
:10184000BF90AF909F908F900C94A802B394EE0C31
:10185000FF1CFFE0BF12ABCF0F5F1F4F053011051C
:1018600009F08CCF8FEF89838A831B820E946217D5
:101870008160782F9D838C8349815A816B818D8112
:101880000E94560CBECF2A960FB6F894DEBF0FBE4C
:10189000CDBFDF91CF911F910F91FF90EF90DF901F
:1018A000CF90BF90AF909F908F900895DF92EF926E
:1018B000FF920F931F93CF93DF93CDB7DEB72B9794
:1018C0000FB6F894DEBF0FBECDBF7A878B87F42E9C
:1018D000052F162FE72ED82E61110E9448151E8263
:1018E0001D827E2DEC82DD824F2D502F612F8D2D9C
:1018F0009E812B960FB6F894DEBF0FBECDBFDF9151
:10190000CF911F910F91FF90EF90DF900C94761282
:10191000FC01808191810C94B414CF93C82F88234B
:1019200009F48BC08238C1F40E94FE0A81FD85C093
:1019300089E30E94E2140E946B152FEF81EE94E080
:10194000215080409040E1F700C0000089E30E94F0
:10195000E914CF910C946B158338A1F40E94FE0A10
:1019600080FD6BC083E50E94E2140E946B152FEF8F
:1019700081EE94E0215080409040E1F700C00000EB
:1019800083E5E5CF8438A1F40E94FE0A82FD55C0AC
:1019900087E40E94E2140E946B152FEF81EE94E021
:1019A000215080409040E1F700C0000087E4CFCF95
:1019B0008CEF8C0F813A90F46C2F809108019091FC
:1019C00009010E949E16882329F08C2F0E94E91499
:1019D0000E946B158C2F0E94E214BBCF80E28C0F0B
:1019E000883048F4C77081E001C0880FCA95EAF7D3
:1019F0000E942B15AECFEBE5EC0FE33040F4F0E0A6
:101A0000E856FE4F808190E0CF910C94230BE8E5DF
:101A1000EC0FE73150F4F0E0EE0FFF1FE659FE4FF8
:101A200080819181CF910C94390BCD3E30F08C2F79
:101A30000E948E06CF910C946107CF910895882360
:101A400009F452C0823871F40E94FE0A81FF4CC032
:101A500089E30E94E2140E946B1589E30E94E91455
:101A60000C946B15833859F40E94FE0A80FF3CC029
:101A700083E50E94E2140E946B1583E5EFCF843862
:101A800059F40E94FE0A82FF2FC087E40E94E214EC
:101A90000E946B1587E4E2CF9CEF980F913AF0F229
:101AA00090E2980F983050F4877091E001C0990F40
:101AB0008A95EAF7892F0E943115D2CF9BE5980FBE
:101AC000933020F490E080E00C94230B98E5980F7D
:101AD000973120F490E080E00C94390B8D3E20F09B
:101AE0000E94E8060C94610708951F93CF93DF933B
:101AF000182FEB010E948D0C209731F4812FDF917C
:101B0000CF911F910C941F0D8FE99FE00197F1F782
:101B100000C000002197F0CF70E060E0893311F43D
:101B200060E570E00C94750D882321F00E942B1560
:101B30000C946B150895882321F00E9431150C94A4
:101B40006B150895BF92CF92DF92EF92FF920F93A1
:101B50001F93CF93DF936C01D62FC72FFC01128107
:101B6000058102950F700E940015E82E8823A1F0D0
:101B7000E12E112389F08C2F807F803429F080E2C0
:101B80008D0FE12C883040F082E00E94BC150E944D
:101B9000001591E0E82EE926BC2EB2949FE0B92210
:101BA000FBE0FB1598F1EB2DF0E0ED50F14E0C94BD
:101BB000951E0C2F0F70C07F11F00295007F11232E
:101BC000A9F0002359F080E28D0F883010F0D11178
:101BD00009C0802F0E942B150E946B158D2F0E942B
:101BE0008D0C14C0802F0E943B15F6CF8D2F0E94C4
:101BF0001F0D002359F080E28D0F883010F0D111B5
:101C00002CC0802F0E9431150E946B152B2D28505F
:101C1000330B2430310520F40E94FE0A0E94A802F2
:101C2000EE2009F48EC10E94FC1480FD8AC1F601E9
:101C300012820E94F6140E948213C6010E94C20FF3
:101C40000E94F614DF91CF911F910F91FF90EF90BA
:101C5000DF90CF90BF900C94A313802F0E9441156A
:101C6000D3CF2C2F2F70F22EC07FC03219F0F294F8
:101C700080EFF822DD2369F0D13049F1112391F191
:101C8000002351F1F601858180FFA8CF8F708583F5
:101C900023C0112381F0011106C00E944E158F2927
:101CA0000E94940DB3CF0130C1F70E944E158F29C9
:101CB0000E945415ABCF011106C00E9461158F2DF3
:101CC0000E949B0DA3CF013009F4A0CFF6CF1123C2
:101CD00029F0063008F09ACF8F2DE2CF053008F0BA
:101CE00095CFEDCF002359F3D93349F4FFEF27EE19
:101CF00033E0F15020403040E1F700C000008D2F6C
:101D00000E941F0D83CF8C2F86958695837069F076
:101D1000813009F07BCF8D2F9C2F9370111102C061
:101D200090E080E00E94390B71CF8D2F9C2F937033
:101D3000111102C090E080E00E94230B67CF8D2F2D
:101D4000112329F00E948E060E9461075FCF0E9436
:101D5000E806FACF8C2F837009F041C0111156CFDD
:101D60004D2F429546954770440F440F0D2F0F702D
:101D700010E030E020E0042E04C0000F111F221FED
:101D8000331F0A94D2F760E070E0CB01D4FF0FC09C
:101D90006FE070E080E090E004C0660F771F881F5E
:101DA000991F4A95D2F76095709580959095C69544
:101DB000C695C370602B712B822B932BC23049F0D8
:101DC00058F4C13019F00E94341320CF0E9422131E
:101DD0001DCF0E9446131ACF0E94201317CF86955D
:101DE000112311F08C2F8170882309F40FCF4D2F10
:101DF000429546954770440F440F0D2F0F7010E029
:101E000030E020E0042E04C0000F111F221F331FFA
:101E10000A94D2F760E070E0CB01D4FF0FC06FE00E
:101E200070E080E090E004C0660F771F881F991F64
:101E30004A95D2F76095709580959095C695C69510
:101E4000C370602B712B822B932BC23049F058F456
:101E5000C13019F00E94F913D9CE0E94E713D6CEF3
:101E60000E940B14D3CE0E945C13D0CECF701123EE
:101E700029F08C2F0E9482138D2F12CF8D2F0E945C
:101E80009B0D8C2F0E94A313C1CED23F89F160F429
:101E9000D03FC9F0D13F29F1112309F442C001110B
:101EA0009DCE8C2F8F7121C0D33F39F1D43FA1F744
:101EB000112369F1CF718C2F0E94821363E08C2F64
:101EC0000E94A115A3CE112341F0053008F09ECE4B
:101ED0008C2F8F710E94C61399CE063008F096CED3
:101EE000F7CF8C2F8F71112369F20E9482138ECE4F
:101EF0008C2F8F711123C9F3C5CF112329F08C2F9B
:101F00008F710E946D1382CE0E9468137FCE81E094
:101F10000E94BC15023008F479CE82E00E94BC1504
:101F200075CE002359F0D93309F0E9CE8FEF97EE43
:101F3000E3E081509040E040E1F7DFCE8C2F8F71DD
:101F4000A1CFDF91CF911F910F91FF90EF90DF9084
:101F5000CF90BF9008950F931F93CF93DF93EC0121
:101F6000688179818A810E94BE148C010E941D14AF
:101F70000E941F13B801CE01DF91CF911F910F91E5
:101F80000C94A20DCF93DF93EC018B819C81892B64
:101F900029F08881998189238F3F59F4DF91CF916E
:101FA0000895CE010E94AB0FCE01DF91CF910C942A
:101FB0002E02CE010E944F028111F3CF0E94001524
:101FC000882361F38A81882349F382E0DF91CF91EE
:101FD0000C94BC1590E080E00E94230B90E080E020
:101FE0000E94390B0E9448150E944B150E946B15E8
:101FF0000E9488080C9461070E94F0140C94EA0F68
:102000000E9438150C94FC0FE92FE295EF70E25016
:10201000EE3070F4F0E0E150F14E0C94951E803FEC
:1020200019F020F4883E20F481E00895843FE1F324
:1020300080E00895883EC0F3813FD1F7F5CF93FB50
:10204000882780F908950E94B4140C940410CF934B
:10205000DF9300D000D00F92CDB7DEB70F900F9076
:102060000F900F900F90DF91CF910895CF93DF9352
:1020700000D000D000D0CDB7DEB726960FB6F894CA
:10208000DEBF0FBECDBFDF91CF9108951F93CF93D9
:10209000DF93C091D30116E08091D4018C1304C06A
:1020A000DF91CF911F910895D0E01C9FF0011D9FFB
:1020B000F00D1124EB52FE4F4081518162817381FA
:1020C000848195810E9436102196C770E5CF40919A
:1020D00005025091060260910702709108028091FA
:1020E000090290910A020C9436101F93CF93DF934C
:1020F00080910A02807FA9F480910702882389F0E9
:102100008091D301C091D4016091050270910602C3
:10211000A0910802B0910902D62FD72316E0C81368
:1021200004C0DF91CF911F91089590E0109711F0B6
:10213000DF3F19F401968770F2CF189F9001199F25
:10214000300D1124F901EB52FE4F41814713F2CFBC
:1021500040814613EFCF42814111ECCF438154813E
:102160004A1B5B0B483C510528F780910A028F708F
:10217000806180930A02F901E652FE4F80818F70E0
:102180008061808385E092E00E94C20FDF91CF9151
:102190001F910C944610AF92BF92CF92DF92EF92B4
:1021A000FF920F931F93CF93DF93CDB7DEB7619765
:1021B0000FB6F894DEBF0FBECDBF8C0185E0F801ED
:1021C000DE011D9601900D928A95E1F7F80140819C
:1021D0005181E28085E0C82E82E0D82E609108020D
:1021E000709109026115710509F461C190910502B0
:1021F00020910602892F82238F3F09F458C1A380C2
:10220000B480F0900702F501E61BF70BFF2009F4FC
:10221000FCC080910A02382F307FE83CF10508F0BD
:10222000B2C0311179C0FE2C251323C0941321C0F4
:10223000E1101FC08F70806180930A020E946710B6
:10224000C6010E94C20F80910A02F80185838F2D7A
:1022500061960FB6F894DEBF0FBECDBFDF91CF9170
:102260001F910F91FF90EF90DF90CF90BF90AF90B4
:102270000895AB2829F0842F85238F3F09F033C1BF
:1022800080E0F82FF170DF2E80FF3CC08091D301F9
:102290002091D40136E0821315C04D875E878D856D
:1022A0009E850E94B414292F22952F702230F0F0C1
:1022B000243018F59F70F1F0F8019581907FD1F4EA
:1022C000D12C1EC090E0389FF001399FF00D1124F1
:1022D000EB52FE4F6181651306C06081641303C039
:1022E00062816E110FC001968770D5CF9F7011F07B
:1022F000882331F3805E883018F3C8010E94C20F32
:10230000FD2CA5CFEE2009F4A2CF80910A028160B6
:1023100080930A02F12C9BCF251306C0941304C0AE
:10232000F801EE2009F48DC04D875E878D859E856E
:102330000E942310882319F1EE2009F180910A02EE
:10234000803270F0209105023091060238872F8389
:102350001986BB86AA868C87CE0107960E94C20F7B
:1023600086E0F801A5E0B2E001900D928A95E1F7D0
:102370000E9475100E946710FF24F39468CFC80173
:102380000E94C20FF9CF311113C07A2DB98AA88AE1
:102390006E2D89890E94271085E092E00E94C20F6D
:1023A00086E0F60111928A95E9F70E946710B2CF94
:1023B00025130FC094130DC0E1100BC0F8018583E5
:1023C000C8010E94C20F86E0F60111928A95E9F7D2
:1023D0003ECF4D875E878D859E850E942310882382
:1023E00071F2EE2061F280910A02803208F4B8CFD7
:1023F00020910502309106023A8329831B82BD8217
:10240000AC828E83CE010196A9CFE83CF10508F09D
:1024100041C0FE2CEE2009F4B2CF25132AC094133C
:1024200028C080910A0280FD1BC0982F907FC1F0C8
:10243000F8018583903F31F0982F907F905F8F70E7
:10244000892B8583C8010E94C20F86E0F801A5E0B0
:10245000B2E001900D928A95E1F70E946710F7CEE5
:1024600086E0F801A5E0B2E001900D928A95E1F7CF
:10247000EECE4D875E878D859E850E94231081114B
:102480006FCF80910A02816080930A02C8010E9486
:10249000C20FDDCE7A2DB98AA88A6E2D89890E9455
:1024A000271086E0F60111928A95E9F7D6CFEE2043
:1024B00009F465CF4D875E878D859E850E94231028
:1024C000F82E882309F45BCF86E0F801A5E0B2E09E
:1024D00001900D928A95E1F785E092E00E94880CC8
:1024E0000E947510BACF81E08E25CBCE1F93CF937B
:1024F000DF93CDB7DEB72C970FB6F894DEBF0FBED3
:10250000CDBF4F83588769877A878B879C87CE0199
:1025100007960E94CB10882369F08A859B85892BBA
:1025200039F04F815885842F85238F3F09F071C082
:1025300016E05FC086E0FE013796DE01119601903D
:102540000D928A95E1F78A859B85892B89F38F8186
:10255000988589238F3F61F32091D40130E0C90130
:102560000196877099274091D3014817190671F495
:102570000E9400101092D4011092D30186E0E5E091
:10258000F2E0DF011D928A95E9F7D2CF96E0929FA3
:10259000D001939FB00D1124AB52BE4FFE01319676
:1025A00001900D929A95E1F78093D4010E94461014
:1025B000BFCF819FC00111248B529E4F0E94CB1030
:1025C0008823E9F0E091D3011E9FF0011124EB5222
:1025D000FE4F4081518162817381848195810E9487
:1025E00036108091D30190E00196877099278093EF
:1025F000D3018091D3019091D4018913DACF2C9625
:102600000FB6F894DEBF0FBECDBFDF91CF911F9103
:10261000089569857A858B859C850E94361088CFC0
:1026200008950C9410130E9411136093410270934B
:10263000420280934302909344020C94EA0F08955F
:102640000C9413130F931F930091410210914202B7
:102650002091430230914402602B712B822B932BEB
:102660001F910F910C9413130F931F93009141022C
:102670001091420220914302309144026023712361
:10268000822393231F910F910C9413130F931F9385
:102690000091410210914202209143023091440284
:1026A00060277127822793271F910F910C94131392
:1026B0000C9410130C9458130E945A1360933D020B
:1026C00070933E0280933F02909340020C94EA0F75
:1026D00060E070E0CB010C945C130F931F9341E01A
:1026E00050E060E070E08A019B0104C0000F111F00
:1026F000221F331F8A95D2F7C901B8011F910F918C
:102700000C945C130F931F9341E050E060E070E085
:1027100004C0440F551F661F771F8A95D2F780911A
:102720003D0290913E02A0913F02B09140028A0189
:102730009B01082B192B2A2B3B2BC901B8011F9198
:102740000F910C945C130F931F9341E050E060E0F5
:1027500070E004C0440F551F661F771F8A95D2F79B
:10276000CB01BA01609570958095909500913D02DE
:1027700010913E0220913F0230914002602371236C
:10278000822393231F910F910C945C130F931F933B
:1027900041E050E060E070E004C0440F551F661F48
:1027A000771F8A95D2F780913D0290913E02A091C9
:1027B0003F02B09140028A019B01082719272A276E
:1027C0003B27C901B8011F910F910C945C130F9323
:1027D0001F9300913D0210913E0220913F023091E3
:1027E0004002602B712B822B932B1F910F910C9425
:1027F0005C130F931F9300913D0210913E022091B4
:102800003F023091400260237123822393231F9162
:102810000F910C945C130F931F9300913D02109144
:102820003E0220913F0230914002602771278227AB
:1028300093271F910F910C945C1308952FE0929FA2
:10284000800D1124982F977041E001C0440F9A9594
:10285000EAF786958695869595E0899FF001112483
:10286000E55FFD4F90E080E070E05191DF0111974E
:102870009B01082E02C0369527950A94E2F7217035
:1028800021952527242325272C9301968530910512
:1028900061F708952FE0929F800D1124982F977073
:1028A00086958695869525E0829FF0011124E55F47
:1028B000FD4F50E040E080E0219130E0092E02C061
:1028C000369527950A94E2F721703327042E01C02C
:1028D000220F0A94EAF7822B4F5F5F4F4530510574
:1028E00059F70895BF92CF92DF92EF92FF920F9324
:1028F0001F93CF93DF938C01C0903D02D0903E0296
:10290000E0903F02F090400280914102909142029B
:10291000A0914302B0914402C82AD92AEA2AFB2A8C
:10292000CFE1D0E0BC2ED701C6010C2E04C0B69575
:10293000A795979587950A94D2F780FD0EC02197A9
:1029400088F7B12C8B2DDF91CF911F910F91FF90C4
:10295000EF90DF90CF90BF900895B8018C2F0E9428
:10296000C402019761F3EECFCF93DF93EC010E9495
:102970007214BE01DF91CF910C94C4021F93CF93C8
:10298000DF93EB019091D201992331F0CB01DF91DC
:10299000CF911F910C94B414882379F0CB010E943D
:1029A0007214182F682FCE010E941E14BE01812FB1
:1029B000DF91CF911F910C94C402CB010E944A1465
:1029C000182FF4CF682F80910801909109010C9481
:1029D000D416682F80910801909109010C94D616A5
:1029E00080910801909109010C94D81680914502BC
:1029F0008595859585950895809145028770089500
:102A000090914502977081E009F480E008959091DB
:102A10005F0292FB222720F9281751F080FB92F9E0
:102A200090935F0280915E0290915F020C94011678
:102A3000089580915F0282FB882780F991E08927C1
:102A40000C94071581E00C94071580E00C94071591
:102A500080915102089590915102892B80935102E7
:102A60000895809590915102982390935102089572
:102A700010925102089590915002892B8093500238
:102A80000895809590915002982390935002089554
:102A900010925002089510924F02089580914602BC
:102AA000089508950C94511590915F0292FD08C00D
:102AB00090914602981721F0809346020C9452158B
:102AC000089580914602882329F01092460280E002
:102AD0000C9452150895E0910801F091090180913C
:102AE00051028083E0910801F09109018081909169
:102AF0005002892B8083E0910801F09109018081C7
:102B000090914F02892B808390914602992381F006
:102B1000E0910801F09109018081892B80838091E7
:102B20000801909109010E948C1681110E94611583
:102B300080910801909109010C940A0B08950C945E
:102B40009E1590915F0292FD10C098E0899F9001C0
:102B50001124622B609345020E94821380914502EA
:102B60008595859585950C949F150C9482131092EC
:102B7000450280E00C949F15909145028095892331
:102B800080934502282F277039F4282F082E000C37
:102B9000330B9217130621F490915F0292FF07C046
:102BA0008595859585950E94A3130C94B715089576
:102BB00080E008956FEF7FEF90E080E00C94DB1EE3
:102BC00090E080E00E94B71E21E08A3E9E4F09F00F
:102BD00020E0822F089582E090E00C94AF1E83E005
:102BE00090E00C94AF1ECF9384E090E00E94AF1E63
:102BF000C82F82E290E00E94AF1E982F8C2FCF91B9
:102C00000895CF93C92F682F84E090E00E94BD1EE5
:102C10006C2F82E290E0CF910C94BD1EAB01BC0101
:102C20008FE090E00C94CF1EAB01BC0183E190E0FB
:102C30000C94CF1E60E070E0CB010C94141660E0A1
:102C400070E0CB010E940E160C941A166AEE7EEF0D
:102C500090E080E00E94DB1E60E082E090E00E9455
:102C6000BD1E60E083E090E00E94BD1E1092410214
:102C700010924202109243021092440260E084E0FB
:102C800090E00E94BD1E60E082E290E00E94BD1EC6
:102C900060E085E090E00E94BD1E60E086E090E08C
:102CA0000E94BD1E6FEF87E090E00E94BD1E40E0D5
:102CB00050E0BA0188E090E00E94CF1E60E08DE015
:102CC00090E00E94BD1E40E050E0BA0188E190E033
:102CD0000E94CF1E60E087E190E00E94BD1E40E0B0
:102CE00050E0BA018CE190E00E94CF1E70E060E0FD
:102CF00080E290E00E94DB1E40E050E0BA0188E1F3
:102D000090E00E94CF1E0C941F160C942616682F7C
:102D10008EE090E00C94BD1E9C012E5F3F4FAC01F5
:102D2000485F5F4F80E02417350709F40895F901E3
:102D300091919F019923B9F38F5FF5CF662349F0F5
:102D4000FC01329608962191261729F0E817F90719
:102D5000D1F780E0089581E008959C01FC0132964E
:102D60009FEF80E04191461751F09F3F19F44111C8
:102D700001C0982F8F5F8630A9F79F3F09F408950F
:102D8000290F311D97FD3A95F90162830895FC01E1
:102D9000329608962191261303C0DF0111971C92E9
:102DA000E817F907B9F708950C94AD160C94C716F7
:102DB000029626E0FC0111922A95E9F708950895FC
:102DC00008950C94E01680917C02843049F10E94B1
:102DD000E11680E00E94A8021092530288E190E080
:102DE00020E40FB6F894A895809360000FBE20935E
:102DF000600083B7817F846083BF83B7816083BFB6
:102E00007894889583B78E7F83BF0FB6F894A89582
:102E100080916000886180936000109260000FBE16
:102E200008950895CF930E94DF160E9451050E94D5
:102E30001117C0E08C2F0E94DA04892B31F4CF5F88
:102E4000C530C1F780E0CF91089581E0FCCF0895AF
:102E50000C9427170E9400100E94FE0A0E94A802EC
:102E60000C9428171F921FB61F9211248F939F93C3
:102E7000AF93BF9380915302811113C0809174026C
:102E800090917502A0917602B09177024196A11DB2
:102E9000B11D8093740290937502A0937602B09353
:102EA0007702BF91AF919F918F911F901FBE1F908E
:102EB000189582E084BD93E095BD9AEF97BD80930D
:102EC0006E0008952FB7F894809174029091750266
:102ED000A0917602B09177022FBF08952FB7F89492
:102EE00060917402709175028091760290917702E0
:102EF0002FBF08959C014FB7F89480917402909170
:102F00007502A0917602B09177024FBF821B930B9E
:102F1000089578941F921FB61F9211248F939F9348
:102F2000AF93BF938091740290917502A091760245
:102F3000B09177020196A11DB11D80937402909308
:102F40007502A0937602B0937702BF91AF919F91E3
:102F50008F911F901FBE1F90189581E08093E00015
:102F600080E28093D8001092C9008FE19EE401971F
:102F7000F1F700C0000087E090EBDC018093850250
:102F800090938602A0938702B093880288E19CE028
:102F90000FB6F894A895809360000FBE90936000E0
:102FA000FFCF90939D0180939C01089580915C02D6
:102FB0000895CF93DF9300D00F92CDB7DEB79091F5
:102FC0007C02943019F589837B836A8382E0809345
:102FD000E9008FEF9091E800815095FD06C095EDD6
:102FE0009A95F1F700008111F5CF8091E80085FFF7
:102FF0000DC050E040E063E070E0CE0101960E9419
:10300000F0198091E8008E778093E8000F900F9080
:103010000F90DF91CF910895BC0184E00C94D917F3
:10302000BC0183E00C94D9179C0182E08093E900F5
:103030009FEF8091E800915085FD06C085ED8A954F
:10304000F1F700009111F5CF8091E80085FF0CC0E9
:1030500050E040E066E070E0C9010E94F019809104
:10306000E8008E778093E8000895CF93DF93EC011A
:1030700081E08093E9008FEF9091E800815095FD09
:1030800006C095ED9A95F1F700008111F5CF80917A
:10309000E80085FF14C050E040E068E070E0CE0139
:1030A0000E94F0198091E8008E778093E80088E014
:1030B000FE01A4E5B2E001900D928A95E1F7DF915F
:1030C000CF91089580917B02811109C00E94801BDD
:1030D0000E94DD1B8091E20084608093E2000895ED
:1030E00010927B02089508950895089542E061ECDE
:1030F00081E00E94FC1A42E261EC82E00C94FC1A2E
:1031000080917E02833009F45FC030F48130C1F1D8
:10311000823009F49BC008958A3009F487C08B304F
:1031200009F46DC0893009F04EC080917D02813272
:1031300009F049C08091810290918202029708F0C3
:1031400042C08091E800877F8093E8008091E8008A
:1031500082FF35C09091F3008091F200029729F42C
:103160008091F1008B7F813021F48091F100809378
:103170005C028091E8008B778093E8000C94301B10
:1031800080917D02813AF9F48091E800877F8093F5
:10319000E8008091810290918202892B61F468E0BD
:1031A00084E592E070E00E943F1A8091E8008B77FE
:1031B0008093E800089560E090E080E0F3CF809194
:1031C0007C028111C3CF089580917D02813AD9F7A5
:1031D0008091810290918202892BA9F78091E80069
:1031E000877F8093E8008091E80080FFFCCF80918A
:1031F00014018093F1008091E8008E77BDCF80911B
:103200007D02813201F78091810290918202892BA7
:10321000D1F68091E800877F8093E8000E94301B00
:1032200080917F02809314010C94001080917D02A4
:10323000813249F68091E800877F8093E8000E9400
:10324000301B8091800280935D02089580917D0201
:10325000813A09F0B8CF8091E800877F8093E80039
:103260008091E80080FFFCCF80915D02C2CF84B7DF
:10327000877F84BF0FB6F894A8958091600088611D
:1032800080936000109260000FBE80E890E00FB65F
:10329000F89480936100909361000FBE0E94830BAD
:1032A0000E94801B0E94DD1B8091E200846080935D
:1032B000E20078940E94661E0E94970B8AE091E0DB
:1032C0000E94F90A80917C02853099F00E949F0B40
:1032D0000E94930BF7CF0E94E31680917A02882315
:1032E00041F00E941217882321F00E94DA190E94EF
:1032F000001080917C02853071F30E942A17E6CF7E
:103300000C948219292F33272330310519F168F4E1
:103310002130310509F444C02230310509F445C09B
:1033200090E080E030E020E025C02132310549F115
:1033300022323105A9F780E490E024ED32E06115F6
:103340007105C1F08BE790E029E532E0613071054D
:1033500089F0E6CF99278130910581F0009729F017
:103360000297F1F6E8EDF1E002C0E8E0F2E08491C6
:1033700090E09F01FA01318320830895E4EFF1E0AA
:10338000F6CF89E090E02EE132E06115710591F30E
:1033900089E090E027E332E06130710559F3C0CF56
:1033A00082E190E027E432E0E5CF8BE390E02CE08F
:1033B00032E0E0CF80E189BD82E189BD09B400FE41
:1033C000FDCF8091D8008F7D8093D8008091E00060
:1033D00082608093E0008091E00081FDFCCF089541
:1033E000AF92BF92CF92DF92FF920F931F93CF9332
:1033F000DF936C01EB018A010E944F1BF82E8111B3
:1034000023C00115110539F0F80180819181C81B95
:10341000D90BC80ED91EB12CA12C2097A9F08091F0
:10342000E80085FD22C08091E8008E778093E80057
:1034300001151105A1F0F80180819181A80EB91E36
:10344000B182A08285E0F82E8F2DDF91CF911F9160
:103450000F91FF90DF90CF90BF90AF9008950E94A2
:103460004F1B8823D1F2F82EEFCFF60181916F0127
:103470008093F1002197FFEFAF1ABF0ACECFFC0176
:10348000809183029091840286179707A0F06115BE
:10349000710529F49091E8009E779093E80090E000
:1034A0006115710551F4911108C08091E80082FF07
:1034B00034C080E00895BC01F2CF80917C02882363
:1034C000C1F18530C1F18091E80083FD30C0809169
:1034D000E80082FDEACF8091E80080FFE1CF809193
:1034E000F3002091F200382F6115710519F0283092
:1034F000310558F091E02830310509F090E0209135
:10350000E8002E772093E800CBCF81918093F100E3
:10351000615071092F5F3F4FE7CF80917C02882374
:1035200041F0853041F08091E80083FFBECF81E01B
:10353000089582E0089583E00895FC01809183025C
:103540009091840286179707A0F06115710529F400
:103550008091E8008E778093E80090E06115710516
:1035600051F4911108C08091E80082FF35C080E0DD
:103570000895BC01F2CF80917C028823C9F1853087
:10358000C9F18091E80083FD31C08091E80082FD9F
:10359000EACF8091E80080FFE1CF8091F300209195
:1035A000F200382F6115710519F02830310558F0F7
:1035B00091E02830310509F090E08091E8008E77A5
:1035C0008093E800CBCF84918093F10031966150D5
:1035D00071092F5F3F4FE6CF80917C02882341F035
:1035E000853041F08091E80083FFBDCF81E00895F0
:1035F00082E0089583E00895982F973028F08F7027
:103600008093E90081E008959093E900242F762FBC
:1036100050E0981731F07091EC002091ED0050913E
:10362000F00021FD02C09F5FE8CF3091EB003E7FAC
:103630003093EB003091ED003D7F3093ED00309101
:10364000EB0031603093EB007093EC002093ED00C1
:103650005093F0002091EE0027FDE5CF80E0089523
:1036600080917D0287FF13C08091E80082FF06C031
:103670008091E8008B778093E80004C080917C0201
:103680008111F2CF089580917C028823D9F3809133
:10369000E80080FFF8CF8091E8008E77ECCF209192
:1036A000E4003091E50095E6A9012091EC00822F1D
:1036B000817020FF06C08091E80080FF06C080E096
:1036C00008952091E80022FD1AC080917C02882391
:1036D00089F0853089F08091EB0085FD0FC0209145
:1036E000E4003091E50042175307F9F29150E1F6FA
:1036F00084E0089582E0089583E0089581E00895CC
:103700000E94EE1B0E94F61BE0EEF0E080818160DB
:103710008083E8EDF0E080818F77808319BCA7ED8E
:10372000B0E08C918E7F8C9380818F7E808310920D
:103730007B0208950F931F93CF93DF930E94EE1B9C
:103740000E94F61BC8EDD0E088818F77888388813E
:103750008068888388818F7D888319BC10927C0261
:103760001092780210927A021092790200EE10E024
:10377000F80180818B7F808388818160888342E02B
:1037800060E080E00E94FC1AE1EEF0E080818E7F34
:103790008083E2EEF0E080818160808380818860B8
:1037A0008083F80180818E7F808388818061888317
:1037B000DF91CF911F910F910895E8EDF0E08081A6
:1037C0008F7E8083E7EDF0E080818160808384E0FC
:1037D00082BF81E080937B020C949A1BE8EDF0E0BD
:1037E00080818E7F80831092E20008951092DA002B
:1037F0001092E10008951F920F920FB60F921124BC
:103800002F933F934F935F936F937F938F939F93E8
:10381000AF93BF93EF93FF938091E10082FF0BC0C2
:103820008091E20082FF07C08091E1008B7F80934E
:10383000E1000E94651E8091DA0080FF19C080912E
:10384000D80080FF15C08091DA008E7F8093DA0067
:103850008091D90080FF96C080E189BD82E189BD59
:1038600009B400FEFDCF81E080937C020E946218C3
:103870008091E10080FF19C08091E20080FF15C0B7
:103880008091E2008E7F8093E2008091E20080616F
:103890008093E2008091D80080628093D80019BCA8
:1038A00085E080937C020E9474188091E10084FF7F
:1038B0002BC08091E20084FF27C080E189BD82E1B6
:1038C00089BD89B5982F917080FFFBCF8091D8007A
:1038D0008F7D8093D8008091E1008F7E8093E100FE
:1038E0008091E2008F7E8093E2008091E20081600F
:1038F0008093E20080917802882309F449C084E033
:1039000080937C020E9475188091E10083FF29C09A
:103910008091E20083FF25C08091E100877F809342
:10392000E10082E080937C02109278028091E100B5
:103930008E7F8093E1008091E2008E7F8093E20091
:103940008091E20080618093E20042E060E080E0EC
:103950000E94FC1A8091F00088608093F0000E9421
:103960007318FF91EF91BF91AF919F918F917F91CC
:103970006F915F914F913F912F910F900FBE0F90DC
:103980001F90189519BC10927C020E94701870CF7D
:103990008091E30087FD93E090937C02B3CF1F9268
:1039A0000F920FB60F9211242F933F934F935F9373
:1039B0006F937F938F939F93AF93BF93CF93DF9337
:1039C000EF93FF93D091E900DF708091EC00C82F56
:1039D000C17080FDC0E81092E9008091F000877FFF
:1039E0008093F00078940E94131D1092E90080915A
:1039F000F00088608093F000CD2BCF70C093E90079
:103A0000FF91EF91DF91CF91BF91AF919F918F91F6
:103A10007F916F915F914F913F912F910F900FBECA
:103A20000F901F9018951F93CF93DF93CDB7DEB7FC
:103A3000AA970FB6F894DEBF0FBECDBF8DE792E018
:103A40002091F100FC012193CF01F2E085389F071E
:103A5000B9F70E9480188091E80083FF1EC1809111
:103A60007D0290917E029A3008F017C1E92FF0E0B4
:103A7000E35FF04E0C94951E803899F0823809F07F
:103A80000CC1809181028F70873008F006C180934D
:103A9000E9008091EB0085FB882780F91092E9000E
:103AA00006C08091790290917A0291118260909182
:103AB000E800977F9093E8008093F1001092F10066
:103AC0008091E8008E77E5C0882309F4D3C0823066
:103AD00009F0E3C080917F028111D6C080918102FC
:103AE0008F702FEF280F263008F0D7C08093E900A1
:103AF0002091EB0020FFC8C0933031F48091EB009F
:103B000080628093EB00C0C09091EB009061909335
:103B1000EB0021E030E001C0220F8A95EAF7209304
:103B2000EA001092EA008091EB008860EACF8111F0
:103B3000B4C010917F021F778091E3008078812BC1
:103B40008093E3008091E800877F8093E8000E94E3
:103B5000301B8091E80080FFFCCF8091E3008068FB
:103B60008093E30082E0111183E080937C0295C092
:103B70008058823008F091C080917F02909180023D
:103B80008C3D23E09207A1F583E08A838AE2898352
:103B90004FB7F894DE01139620E03EE051E2E32FA8
:103BA000F0E050935700E49120FF03C0E295EF70DE
:103BB0003F5FEF708E2F90E0EA30C0F0C7968D9394
:103BC0009D932F5F243159F74FBF8091E800877F85
:103BD0008093E8006AE270E0CE0101960E943F1AED
:103BE0008091E8008B778093E80057C0C096E7CFBC
:103BF0006091810270918202AE014F5F5F4F0E941F
:103C00008019BC01892B09F448C09091E800977F86
:103C10009093E80089819A810E949D1AE1CF8038B3
:103C2000E1F58091E800877F8093E8008091780239
:103C30008093F10045CF811130C090917F02923086
:103C400060F58091E800877F8093E8009093780288
:103C50000E94301B80917802882311F084E005C017
:103C60008091E30087FDFACF81E080937C020E947F
:103C7000761813C080917F02813079F481E093300F
:103C800009F080E080937A021092E9008091E800C8
:103C9000877F8093E8000E94301B8091E80083FFBB
:103CA0000AC08091E800877F8093E8008091EB0054
:103CB00080628093EB00AA960FB6F894DEBF0FBE29
:103CC000CDBFDF91CF911F9108950895CF9380913B
:103CD0007C028823A1F0C091E900CF709091EC00A4
:103CE000892F817090FD80E8C82B1092E9008091A7
:103CF000E80083FD0E94131DCF70C093E900CF91AF
:103D0000089597FB072E16F4009407D077FD09D08D
:103D10000E949B1E07FC05D03EF4909581959F4F15
:103D20000895709561957F4F0895EE0FFF1F0590E0
:103D3000F491E02D0994AA1BBB1B51E107C0AA1FF7
:103D4000BB1FA617B70710F0A61BB70B881F991F3C
:103D50005A95A9F780959095BC01CD010895F999E0
:103D6000FECF92BD81BDF89A992780B50895A8E14C
:103D7000B0E042E050E00C94E31E262FF999FECF0C
:103D800092BD81BDF89A019700B4021639F01FBAAE
:103D900020BD0FB6F894FA9AF99A0FBE08950396CB
:103DA000272F0E94BE1E0E94BD1E252F0E94BE1EF0
:103DB000242F0C94BE1E0196272F0E94BE1E0C9429
:103DC000BD1EDC01CB01FC01F999FECF06C0F2BD9E
:103DD000E1BDF89A319600B40D9241505040B8F7C9
:103DE0000895F894FFCFD90DD90D310E310E830E01
:103DF0009F0E060E060EAA0E360F450F450F0F102A
:103E00000F10181018101A101810181018100F1082
:103E10000F101F10181018101F103C1D641D4D1E90
:0E3E2000641D4D1E971DB81D4D1E0F1E1B1E4E
:103E2E002808641E140A321E4702D61735181418B5
:103E3E0010180C1801E200E900EA00B500B600B750
:103E4E0000CD008301CC008A01920194012102234E
:103E5E000224022502260227022A02B300B4006FB2
:103E6E00007000818283F7F5F4F1F0379091929310
:103E7E0094969734663536C6F66700FF010001004A
:103E8E0000FFFF0000010001FF00E200E900EA0070
:103E9E00B500B600B700CD008301CC008A019201B7
:103EAE0094012102230224022502260227022A025D
:0C3EBE00B300B4006F007000818283002C
:00000001FF
